:020000040800F2
:10000000A03F0020710200089D2000082B18000866
:1000100099200008D90D0008B53400080000000040
:10002000000000000000000000000000D9010008EE
:1000300081140008000000001D0200086D27000860
:100040008B0200088B0200088B0200088B0200085C
:100050008B0200088B0200088B0200088B0200084C
:100060008B0200088B0200088B0200088B0200083C
:100070008B0200088B0200088B0200088B0200082C
:100080008B0200088B0200088B0200088B0200081C
:10009000953400088B0200088B0200088B020008D0
:1000A0008B0200088B0200088B0200088B020008FC
:1000B000DD2700080D280008292800088B02000809
:1000C0008B0200088B0200088B0200088B020008DC
:1000D0008B02000881310008E93100085132000824
:1000E000851400088B0200088B02000800F002F85B
:1000F00000F062F80AA090E8000C82448344AAF160
:100100000107DA4501D100F057F8AFF2090EBAE85D
:100110000F0013F0010F18BFFB1A43F0010318473B
:1001200050AB000070AB00000A444FF0000C10F818
:10013000013B13F0070408BF10F8014B1D1108BF65
:1001400010F8015B641E05D010F8016B641E01F805
:10015000016BF9D113F0080F1EBF10F8014BAD1C55
:100160000C1B09D16D1E58BF01F801CBFAD505E073
:1001700014F8016B01F8016B6D1EF9D59142D6D3CD
:10018000704700000023002400250026103A28BFF5
:1001900078C1FBD8520728BF30C148BF0B607047F9
:1001A000642900F0F780732900F03784002070473D
:1001B0001FB51FBD10B510BD00F052FC1146FFF772
:1001C000F7FF04F09EFF00F070FC03B4FFF7F2FFAE
:1001D00003BC03F050FA0000224B19680868B0E82D
:1001E000F00F80F30988BFF36F8F4FF0000080F3AA
:1001F00011884EF00D0E70470000000006480068A0
:10020000006880F3088862B661B6BFF34F8FBFF312
:100210006F8F00DF00BF00BF08ED00E0EFF3098043
:10022000BFF36F8F0F4B1A6820E9F00F106008B50D
:100230004FF0500080F31188BFF34F8FBFF36F8FE3
:1002400007F0D0FA4FF0000080F31188BDE80840B5
:1002500019680868B0E8F00F80F30988BFF36F8F62
:10026000704700BFC4000020EFF305807047000016
:100270000948804709480047FEE7FEE7FEE7FEE73A
:10028000FEE7FEE7FEE7FEE7FEE7FEE70448054976
:10029000054A064B704700007D270008ED00000866
:1002A000A0390020A03F0020A03B0020A03B002060
:1002B000704710B54C1084EA530404D54042C1F194
:1002C000000138BF491E1B4204D55242C3F100034E
:1002D00038BF5B1E00F096FA14F0804F04D0404205
:1002E000C1F1000138BF491E14F0004F04D0524242
:1002F000C3F1000338BF5B1E10BD00000FB40449FA
:1003000010B503AA029800F08DFB10BC5DF814FB39
:100310002C0000200FB41CB5084B06AA7B4469468C
:100320000090059800F04FFB04460020694600F05D
:100330005DFB20461CBC5DF814FB0000CD060000F0
:1003400070B50C460546012A05D02878800600D5F0
:10035000EA69002302E0012305E05B1C934202D21C
:10036000E05C0028F9D1A869E618C01AA861286ADB
:10037000184428622846AFF3008004E0D5E9012143
:1003800014F8010B9047B442F8D32846AFF300802D
:1003900070BD00002DE9F041064600241068752963
:1003A000314616A510D0AFF30080002802DA404293
:1003B00013A507E031688A0701D512A502E04907B5
:1003C00004D511A5012401E0AFF3008000210A2229
:1003D00006F1240709E0B0FBF2FCB0FBF2F302FBEC
:1003E0001C00303078541846491C0028F3D12346AD
:1003F0002A463046BDE8F04100F086BA0000000011
:100400002D0000002B000000200000002DE9F05F0F
:10041000894604464FF0000ADFF874B1FB44C0F887
:1004200020A02046E1688847002874D0252806D0FF
:10043000D4E901219047206A401C2062F1E70026A0
:100440005F462046E16888472028054607DB312DB6
:1004500005D2781910F8200C08B10643F1E7B0076F
:1004600001D526F00406C4F81CA00027C4F818A083
:100470002A2D09D0284603F0F7F838B304EB870893
:10048000303DC8F8185019E059F8041B204604EB19
:1004900087029161E1688847012F054618D1E0691C
:1004A000002820DA26F020061DE0D8F8180000EB1E
:1004B000800005EB40003038C8F818002046E1689D
:1004C0008847054603F0D0F80028EED1012F0AD066
:1004D0002E2D08D12046E16888477F1C0546022F53
:1004E00046F02006C4DBA069002803DA404246F04B
:1004F0000106A061F00701D026F010066C2D0BD08C
:10050000682D09D04C2D39D06A2D35D0742D35D0B9
:100510007A2D33D016E038E0E1682F462046884730
:10052000B842054609D16C2F26D04FF48060E168AF
:10053000064320468847054604E06C2F1AD04FF446
:10054000807006430DB3A5F14100192802D820356B
:1005500046F400664A462946204626604E46FFF786
:100560001FFE80B101280BD0F61D26F0070000F118
:10057000080956E74020E4E78020D8E70020D6E7C6
:1005800006F104094DE7284652E7206ABDE8F09FCE
:10059000FEA6000040EA010310B59B070FD1042A14
:1005A0000DD310C808C9121F9C42F8D020BA19BA3E
:1005B000884201D9012010BD4FF0FF3010BD1AB1A3
:1005C000D30703D0521C07E0002010BD10F8013BF8
:1005D00011F8014B1B1B07D110F8013B11F8014B1F
:1005E0001B1B01D1921EF1D1184610BD032A40F207
:1005F000308010F0030C00F0158011F8013BBCF1C5
:10060000020F624498BF11F801CB00F8013B38BFDC
:1006100011F8013BA2F1040298BF00F801CB38BFEA
:1006200000F8013B11F0030300F02580083AC0F008
:10063000088051F8043B083A51F804CBA0E80810B0
:10064000F5E7121D5CBF51F8043B40F8043BAFF3E3
:100650000080D20724BF11F8013B11F801CB48BF3D
:1006600011F8012B24BF00F8013B00F801CB48BF73
:1006700000F8012B704710B5203AC0F00B80B1E8AC
:100680001850203AA0E81850B1E81850A0E81850C7
:10069000BFF4F5AF5FEA027C24BFB1E81850A0E8D0
:1006A000185044BF18C918C0BDE810405FEA827CEA
:1006B00024BF51F8043B40F8043B08BF7047D20701
:1006C00028BF31F8023B48BF11F8012B28BF20F8A2
:1006D000023B48BF00F8012B704702F0FF0343EADA
:1006E000032242EA024200F002B84FF0000204295D
:1006F000C0F0128010F0030C00F01B80CCF1040C51
:10070000BCF1020F18BF00F8012BA8BF20F8022B84
:10071000A1EB0C0100F00DB85FEAC17C24BF00F82A
:10072000012B00F8012B48BF00F8012B70474FF058
:10073000000200B5134694469646203922BFA0E831
:100740000C50A0E80C50B1F12001BFF4F7AF09073D
:1007500028BFA0E80C5048BF0CC05DF804EB89002E
:1007600028BF40F8042B08BF704748BF20F8022B71
:1007700011F0804F18BF00F8012B70474FF0013C7B
:1007800050F8042B51F8043B9A4221D1A2EB0C0300
:10079000934313EACC1317D150F8042B51F8043BC0
:1007A0009A4215D1A2EB0C03934313EACC130BD15D
:1007B00050F8042B51F8043B9A4209D1A2EB0C03E8
:1007C000934313EACC13DBD04FF00000704700BF17
:1007D000D01A01BAB1FA81F101F0180122FA01F040
:1007E000CB40C1F12001DBB2C0B2C01A2CFA01F338
:1007F000D11A914311EAC311E6D17047704770478F
:100800007047704753EA020C00F069802DE9F04B05
:100810004FF00006002B1FBFB3FA83F503FA05F46F
:1008200024FA05F65E4012BF1643B2FA82F502FAC8
:1008300005F4C5F120051EBF22FA05FC44EA0C04AC
:10084000203556EA044C4FEA144418BF641C4FF09C
:1008500000084FF00009904271EB030C39D30029D6
:1008600019BFB1FA81F701FA07F6B0FA80F700FA7A
:1008700007F6C7F120071EBF20FA07FC46EA0C0660
:100880002037B6FBF4FCA7EB0507103F07F01F0B62
:10089000CBF120060CFA0BFB2CFA06F644BFB3464C
:1008A0000026202FA4BF5E464FF0000B5BEA060C2B
:1008B00008BF4FF0010B19EB0B09ABFB027C48EBB7
:1008C0000608C01B06FB02CC0BFB03CC71EB0C0132
:1008D000C1E70B46024641464846BDE8F08B13B5DA
:1008E0004FF000004FF00001AFF30080BDE81C4066
:1008F000704710B500F0A8F8006810BD10B50446A8
:1009000000F0A2F8046010BD2DE9F0470D469946AD
:100910009246044600F124080168880604D5E0697F
:1009200021F01001216000E00120A84201DD471BF9
:1009300000E00027A1697A1902EB0900081AA061FA
:100940002078C00602D42046AFF30080002608E0DD
:10095000D4E901211AF806009047206A401C761C51
:1009600020624E45F4DB2078C0060AD52046AFF35E
:10097000008006E0D4E9012130209047206A401C25
:100980002062381EA7F10107F4DC07E0D4E9012159
:1009900018F805009047206A401C2062281EA5F127
:1009A0000105F3DC2046AFF300802078000602D575
:1009B0000220BDE8F0870120FBE7000001694A1C26
:1009C00002610878704700B58FB0CDE90131002190
:1009D000059105497944CDE9031011466846FFF7B2
:1009E00015FD0FB000BD0000E5FFFFFF0A6802F82B
:1009F000010B0A60704710B5436913B1AFF3008073
:100A000001E0FFF79DFC012010BD127800F12401E8
:100A10000A7000224A700122EDE711684FF0FF32A0
:100A2000E9E70000074B70B50D467B44FFF7CBFFAD
:100A30000446284600F00CF810B14FF0FF3070BDAE
:100A4000204670BD1F400000004870473C39002020
:100A5000007B00F080007047004870473C39002060
:100A60007546FFF7F9FFAE4605006946534620F08C
:100A70000700854618B020B5FFF708FCBDE8204008
:100A80004FF000064FF000074FF000084FF0000B4A
:100A900021F00701AC46ACE8C009ACE8C009ACE8FD
:100AA000C009ACE8C0098D46704710B50446AFF3E5
:100AB00000802046BDE81040FFF787BB08B5012144
:100AC000092001F009FD0121134800F05DFE182006
:100AD000ADF8000010208DF8030003208DF802000F
:100AE00069460E4800F0C4FD18210C4800F096FE3F
:100AF00000F088FF702000F04BFFE12000F048FF7D
:100B0000082000F045FF002000F042FF00F0A0FFA9
:100B1000282003F07DF908BD00023000000C0140E0
:100B20002DE9F04F91B00446894600200F900E90B9
:100B300000F068FF702000F02BFF00F0AFFFAC204A
:100B400000F026FF00F0AAFF332000F021FF00F0A4
:100B5000A5FF002000F01CFF00F0A0FF00F078FFD0
:100B6000502003F055F900F04DFF712000F010FF08
:100B700000F094FF012000F0D3FE1090109800F0D8
:100B8000400000287ED1012000F0CAFE8DF8300020
:100B9000012000F0C5FE8DF83100012000F0C0FEFC
:100BA0008DF83200012000F0BBFE8DF833000020EC
:100BB00000F0B6FE8DF8340000F04AFF9DF83000DA
:100BC00000039DF8311000EB01109DF8321000EB8E
:100BD00021100F909DF832000007000B9DF8331094
:100BE00000EB01209DF8341008440E900F9807F098
:100BF00075FF07460022294B07F084FF0022284B8F
:100C0000CDE9080107F090FD0022254BCDE90A014E
:100C100007F08AFD05460022224B07F0C9FC8246F8
:100C200007F016FF89F800000E9807F057FF0746F7
:100C300000221D4B07F066FF05460022184B07F007
:100C400073FD82460022164B07F06EFD0022154B05
:100C5000CDE9000107F0ACFCCDE9020107F0F8FE98
:100C6000059007F024FF0022104BCDE9060107F0A4
:100C70005BFD00220E4BCDE9080108F033F9CDE908
:100C80000A0100E006E007F061FC2060002011B0DE
:100C9000BDE8F08F00F0DCFE0120F8E700005940CD
:100CA000000090400000E03F00409F4000002440D2
:100CB0000000494010B500F0A5FE702000F068FE6D
:100CC00000F0ECFEBA2000F063FE00F0E7FE00F05A
:100CD000BFFE10BD1CB5012406F090FA25481E2168
:100CE00000238022CDE9001023A1254807F0E0F879
:100CF000044624B9A02223A126A0FFF7FFFA294821
:100D00001D2100234FF40072CDE9001026A12848D0
:100D100007F0CEF8044624B9AC221AA11DA0FFF7B3
:100D2000EDFA24481C2100238022CDE9001022A1E5
:100D3000234807F0BDF8044624B9B62211A115A036
:100D4000FFF7DCFA1F481B2100238022CDE90010A9
:100D50001DA11F4807F0ACF8044624B9C02209A120
:100D60000CA0FFF7CBFA1B48006806F0D3FB06F097
:100D700087FA1CBD880000205461736B5F3000004F
:100D8000E12A0008557365725C575461736B2E63DA
:100D9000000000004572726F723A25732C25640DB5
:100DA0000A0000008C0000205461736B5F3100006A
:100DB000052C0008900000205461736B5F32000026
:100DC000592D0008940000205461736B5F330000BC
:100DD000D92F00088400002000BFFEE710B58AB0BC
:100DE00004460121042001F077FB0121480601F0AF
:100DF00063FB4FF48050ADF8240003208DF82600EB
:100E000018208DF8270009A9304800F031FC4FF474
:100E10000060ADF8240048208DF8270009A92B4870
:100E200000F026FC01208DF81F008DF820008DF8C1
:100E30001A408DF821008DF8220000208DF81E0048
:100E40008DF823008DF81B0008208DF81C0007206A
:100E50008DF81D001420ADF8180006A91C4800F0FC
:100E6000C6F801208DF815000020ADF810008DF8AF
:100E7000120001208DF8140000208DF81300ADF849
:100E8000080049F2A410ADF80A004FF6FF70ADF863
:100E90000C00ADF80E0002A800F01CF8012202219F
:100EA0000B4800F09BF814208DF8040006208DF804
:100EB000050000208DF8060001208DF8070001A82C
:100EC00001F0EEF800200AB010BD0000000801405B
:100ED0000064004010B50021837A012202FA03F178
:100EE0003D4A126842F001023B4B1A603A4A1C32FA
:100EF00012688A43384B1C331A60027BCAB9364ADF
:100F00000C3212688A43344B0C331A604288C3880F
:100F100042EA0343304A4032847A42F8343002884D
:100F2000838842EA03432C4A4032847A02EBC402AB
:100F30005360027B012A19D1274A0C3212680A43F6
:100F4000254B0C331A604288038842EA0343224A45
:100F50004032847A42F83430C288838842EA0343BC
:100F60001D4A4032847A02EBC4025360C27A3AB915
:100F7000194A121D12688A43174B1B1D1A6006E09E
:100F8000154A121D12680A43134B1B1D1A60028971
:100F900032B9114A143212688A430F4B14331A6063
:100FA0000289012A06D10C4A143212680A430A4BFC
:100FB00014331A60427B012A06D1074A1C32126898
:100FC0000A43054B1C331A60034A126822F00102DF
:100FD000014B1A6010BD0000006600401AB1436961
:100FE0000B43436102E043698B434361704730B573
:100FF000024600200023146824F0020414601468E0
:1010000044F00104146000E05B1C546804F0010427
:101010001CB94FF6FF74A342F6D1546804F00104E2
:101020000CB900206CE08C79012C04D1146844F0D8
:101030008004146003E0146824F080041460CC7908
:10104000012C04D1146844F04004146003E01468D7
:1010500024F0400414600C7A012C04D1146844F08C
:101060002004146003E0146824F0200414604C7A17
:10107000012C04D1146844F01004146003E01468D7
:1010800024F0100414608C7A012C04D1146844F00C
:101090000804146003E0146824F008041460CC7A97
:1010A000012C04D1146844F00404146003E01468B3
:1010B00024F0040414608C78A407CD7844EA056415
:1010C0000D7944EA05444D7944EA05540D886D1EB6
:1010D0002C43D461146824F001041460002300E060
:1010E0005B1C546804F001041CB14FF6FF74A3426A
:1010F000F6D1546804F001040CB1002000E0012096
:1011000030BD10B500F5D87303EB01131B6803F075
:1011100004031372137A53B900F5D87303EB011368
:101120001B6840F2FF7404EA5353136009E000F5B2
:10113000D87303EB01131B686FF0604404EAD30318
:10114000536000F5D87303EB01131B6803F002032F
:10115000537200F5D87303EB01135B6803F00F03C0
:10116000937200F5D87303EB01135B681B0AD37409
:1011700000F5D87303EB01139B68D37200F5D873A5
:1011800003EB01139B681C0A147300F5D87303EB7F
:1011900001139B681C0C547300F5D87303EB011307
:1011A0009B681B0E937300F5D87303EB0113DB6888
:1011B000D37300F5D87303EB0113DB681C0A1474B6
:1011C00000F5D87303EB0113DB681C0C547400F5B5
:1011D000D87303EB0113DB681B0E937421B9C3684A
:1011E00043F02003C36003E0036943F0200303617D
:1011F00010BD10B502460020936803F08063B3F180
:10120000806F00D110E0936803F00063B3F1006FCA
:1012100001D1012008E0936803F08053B3F1805FAF
:1012200001D1022000E00420042874D002F5C0732C
:1012300003EB00131B6803F0010402F5C07303EB1A
:1012400000131C600B7A7BB94B7A0C8843EA445339
:1012500002F5C07404EB00142468234302F5C07443
:1012600004EB0014236010E00B7A4C6843EAC403DB
:101270004C7A234302F5C07404EB00142468234322
:1012800002F5C07404EB001423608B7A03F00F03A3
:101290008B7202F5C07303EB00135B6823F00F043D
:1012A00002F5C07303EB00135C6002F5C07303EB3F
:1012B00000135B688C7A234302F5C07404EB0014BE
:1012C00063608B7B1C064B7B44EA03440B7B44EA44
:1012D0000323CC7A234302F5C07404EB0014A3600B
:1012E0008B7C1C064B7C44EA03440B7C44EA0323BE
:1012F000CC7B234302F5C07404EB0014E36002F5D9
:10130000C07303EB00131B6843F0010402F5C073C4
:1013100003EB00131C6010BD10B50246002321B181
:10132000012907D002290FD109E090681D4C00EA7D
:1013300004030BE090681C4C00EA040306E090688C
:101340001A4C00EA040301E0002300BF00BF184C60
:10135000181BA34216D007DC83B16FF080601844DD
:1013600070B1022818D111E0B0F5007F10D0114CF7
:10137000204448B1B0F5003F0ED10BE002230DE050
:1013800000230BE0002309E0002307E0012305E030
:10139000012303E0012301E0002300BF00BFD8B216
:1013A00010BD00000300000400030008000003104B
:1013B000000100080001FFF710B5024600210020DF
:1013C00004E00A4B5B5C53544B1CD9B2074B5B5C8B
:1013D000002BF6D1054B00241C605C600B3B987A17
:1013E0000023024C0B3CA37210BD0000E70100205B
:1013F000F0B585B007460D4600240020009041F26C
:101400003420019000208DF8090004208DF8080098
:101410008DF80A5000BF05E0395D0DF10B00015554
:10142000601C84B2AC42F7DB002469460C48FFF72D
:10143000E0FE064601E0601C84B231460848FFF732
:101440006BFF18B940F6FF708442F4DB40F6FF7082
:10145000844202DB012005B0F0BD0020FBE7000064
:101460000064004010B50021044A116051604FF43F
:10147000E1514FF47A7001F0B4FD10BD700000200E
:101480007047000010B54FF4805000F025F8012897
:1014900008D10C480088401C0A4908804FF480504D
:1014A00000F014F84FF4004000F016F8012808D1BD
:1014B00005480088401C044908804FF4004000F0B3
:1014C00005F810BD7C0000207E0000200149086066
:1014D0007047000014040140014600200022074B21
:1014E0001B6803EA0102054B14331B680B4013B160
:1014F0000AB1012000E00020704700000004014014
:10150000002123498279002A3AD00A4612680368EA
:101510009A430B461A600A1D126803689A430B1D12
:101520001A60027911440A6803681A430A60184A6B
:101530000832126803689A43154B08331A601A1D63
:10154000126803689A43124B0C331A604279102ACE
:101550000ED11A1F126803681A430D4B08331A6024
:101560001A1D126803681A43094B0C331A600DE008
:101570000749427911440A6803681A430A6005E082
:10158000027911440A6803689A430A6070470000B0
:10159000000401401FB50121042000F09DFF01213E
:1015A000084600F099FF48208DF80F004002ADF882
:1015B0000C0003208DF80E0003A91C4800F058F819
:1015C0000C21002000F034F80F21002000F030F84A
:1015D0004FF41040019001208DF80A0000208DF892
:1015E000080008208DF8090001A8FFF789FF2820CE
:1015F0008DF8000001208DF803000C208DF801000B
:1016000000208DF80200684600F04AFD28208DF881
:10161000000001208DF803000F208DF8010000204C
:101620008DF80200684600F03BFD1FBD0008014038
:1016300030B500228B071C0F0F2303FA04F20B4B6B
:101640008C1053F824309343084C8D1044F8253007
:1016500023468C1053F824308C07240F00FA04F42E
:101660002343024C8D1044F8253030BD0800014062
:101670002DE9F04102460025002600200023002429
:10168000002791F803C00CF00F0591F803C00CF08F
:10169000100CBCF1000F03D091F802C04CEA050514
:1016A00091F800C0BCF1000F31D0146800202BE08D
:1016B0004FF0010C0CFA00F3B1F800C00CEA03067D
:1016C0009E4220D183004FF00F0C0CFA03F7BC436D
:1016D00005FA03FC4CEA040491F803C0BCF1280F9E
:1016E00006D14FF0010C0CFA00FCC2F814C00AE05D
:1016F00091F803C0BCF1480F05D14FF0010C0CFA72
:1017000000FCC2F810C0401C0828D1D31460B1F806
:1017100000C0BCF1FF0F34DD546800202EE000F162
:10172000080C4FF0010808FA0CF3B1F800C00CEAFD
:1017300003069E4221D183004FF00F0C0CFA03F7F1
:10174000BC4305FA03FC4CEA040491F803C0BCF165
:10175000280F05D100F1080C08FA0CF8C2F8148023
:1017600091F803C0BCF1480F07D100F1080C4FF00D
:10177000010808FA0CF8C2F81080401C0828CED3E3
:101780005460BDE8F0810000F0B50A460023002453
:101790000021002500F00046B6F1004F02D11D4E99
:1017A000F16901E01B4E7168C0F3034583B200F498
:1017B0004016B6F5401F08D121F07061154E7668CD
:1017C00026F07066134F7E6012E000F48016B6F5C6
:1017D000801F06D1032606FA05F4A14341F070618B
:1017E00006E0460D360103FA06F6B14341F070619A
:1017F00022B1460D360103FA06F6314300F00046E9
:10180000B6F1004F02D1034EF16101E0014E71606B
:10181000F0BD000000000140416170470161704768
:101820000AB1016100E04161704700BFFEE710B5F9
:101830004FF4407000F06CFC02F0BCFAFFF712FEAF
:1018400001F03AFE0020FFF7C9FA00F0FFFC00F0BB
:10185000F3FA03F0A7FDFFF731F9FFF72BFAFFF7D3
:1018600099FE06F033F84FF4E1514FF47A7001F02D
:1018700049FC48214FF47A7001F0F4FB10BD0000E0
:1018800010B500200F4908600F48006820F4702050
:101890000D4908600846006840F4403008600020A8
:1018A0000A49C1F89001022002F0D2FA012005494C
:1018B0000860022002F0CCFA00200449C1F88C0133
:1018C00010BD00008C812142000C014000802142AB
:1018D00010B500200F4908600F48006820F4702000
:1018E0000D4908600846006840F440300860012057
:1018F0000A49C1F89001022002F0AAFA0120054924
:101900000860022002F0A4FA00200449C1F88C010A
:1019100010BD00008C812142000C0140008021425A
:1019200070B5054600241748006820F4702015495A
:1019300008600846006840F400200860002616E0B1
:10194000002011490860022002F082FA01200F49AC
:10195000C1F88C016006040E0B487C38006808B1A1
:10196000601CC4B2012002F073FA701CC6B2082ECB
:10197000E6DB15B9FFF7ACFF01E0FFF781FF20467A
:1019800070BD0000000C01408C812142008021428A
:1019900070B504461848006820F4702016490860A5
:1019A0000846006840F44030086000201349086091
:1019B00000251EE0E00920B101201049091D086042
:1019C00003E000200D49091D08606006040E022096
:1019D00002F03EFA012009490860022002F038FABC
:1019E00000200749C1F88C01022002F031FA681C7E
:1019F000C5B2082DDEDB70BD000C01408C81214298
:101A00000080214210B50F48006820F470200D4975
:101A100008600846006840F44030086001200A4928
:101A200008600A49C1F88C01042002F011FA002074
:101A300005490860042002F00BFA00200349C1F8B0
:101A40008C0110BD000C0140908121420080214298
:101A500010B50F48006820F470200D490860084652
:101A6000006840F44030086000200A4908600A49D4
:101A7000C1F89001042002F0EBF90120054908604B
:101A80000549C1F89001042002F0E2F910BD000000
:101A9000000C01408C8121420080214210B50024BD
:101AA0001448006820F47020124908600846006855
:101AB00040F40020086001200F49086002F0C8F9D6
:101AC00001200E49C1F88C0102F0C2F907E0601C48
:101AD000C4B2FA2C03DDFFF7BBFF012010BD06489E
:101AE000803800680028F2D10349091F086000BF50
:101AF000F4E70000000C0140908121420080214267
:101B00002DE9FC4104460D4616466B4606223B2154
:101B1000682000F0EBF90746BFB99DF801009DF879
:101B2000001040EA012000B220809DF803009DF8DB
:101B3000021040EA012000B228809DF805009DF8BF
:101B4000041040EA012000B230803846BDE8FC8134
:101B50002DE9FC4104460D4616466B4606224321FC
:101B6000682000F0C3F90746BFB99DF801009DF851
:101B7000001040EA012000B220809DF803009DF88B
:101B8000021040EA012000B228809DF805009DF86F
:101B9000041040EA012000B230803846BDE8FC81E4
:101BA00010B500200E4908600E48006820F470400F
:101BB0000C4908600846006840F440500860002066
:101BC0000949C1F8AC0100F011F80120044908608E
:101BD00000F00CF800200449C1F8A80110BD000075
:101BE000A8812142040C01400080214210B502204E
:101BF00002F02EF910BD000008B50121082000F008
:101C00006BFC4FF44060ADF8000010208DF803002D
:101C100003208DF8020069460448FFF729FD4FF4C0
:101C200040610248FFF7FAFD08BD0000000C0140CA
:101C300010B500200E4908600E48006820F470407E
:101C40000C4908600846006840F4405008600120D4
:101C50000949C1F8AC01FFF7C9FF01200449086038
:101C6000FFF7C4FF00200449C1F8A80110BD00001F
:101C7000A8812142040C01400080214270B5054634
:101C800000241648006820F4704014490860084693
:101C9000006840F400400860002614E0002010496D
:101CA0000860FFF7A3FF01200E49C1F8A8016006F4
:101CB000040E0B487C38006808B1601CC4B2FFF702
:101CC00095FF701CC6B2082EE8DB15B9FFF7B0FF10
:101CD00001E0FFF765FF204670BD0000040C0140E5
:101CE000A88121420080214270B504461248006854
:101CF00020F47040104908600846006840F44050E5
:101D0000086000200D490860002512E0E0090B4939
:101D1000091D08606006040E01200949C1F8A801E8
:101D2000FFF764FF002005490860FFF75FFF681CAC
:101D3000C5B2082DEADB70BD040C0140A881214228
:101D40000080214210B50E48006820F470400C4914
:101D500008600846006840F44050086001200949C6
:101D600008600949C1F8A801FFF740FF00200549B4
:101D70000860FFF73BFF00200349C1F8A80110BD30
:101D8000040C0140AC8121420080214210B50E4874
:101D9000006820F470400C4908600846006840F470
:101DA000405008600020094908600949C1F8AC01A9
:101DB000FFF71CFF0120054908600549C1F8AC0187
:101DC000FFF714FF10BD0000040C0140A881214260
:101DD0000080214210B500241448006820F47040AF
:101DE000124908600846006840F40040086001207D
:101DF0000F490860FFF7FAFE01200E49C1F8A8015B
:101E0000FFF7F4FE07E0601CC4B2FA2C03DDFFF715
:101E1000BDFF012010BD0648803800680028F2D1BF
:101E20000349091F086000BFF4E70000040C0140EB
:101E3000AC8121420080214210B5FFF7DDFE8021F8
:101E40006B2000F0D7F8642001F0E2FF00216B2046
:101E500000F0D0F8032000F08BF8002000F080F8AC
:101E6000322000F0AAF80021382000F0C3F8002149
:101E70006A2000F0BFF80021232000F0BBF8802189
:101E8000372000F0B7F8752000F013F80446682CEE
:101E90000BD101216B2000F0ADF800216C2000F087
:101EA000A9F8322000F089F801E0012010BD0020DF
:101EB000FCE770B50446FFF745FFD020FFF714FF9D
:101EC000FFF788FF2046FFF70FFFFFF783FFFFF7BD
:101ED00039FFD120FFF708FFFFF77CFF0020FFF755
:101EE000CDFE0546FFF752FF284670BD2DE9F041B3
:101EF00006460F4614461D46FFF724FF002141EA1F
:101F00004601C8B2FFF7F0FEFFF764FF20B1FFF70C
:101F10003DFF0120BDE8F0813846FFF7E5FEFFF701
:101F200059FFFFF70FFF012101EB4601C8B2FFF790
:101F3000DBFEFFF74FFF0DE0012C04D10020FFF77F
:101F40009DFE287003E00120FFF798FE2870601EB8
:101F5000C4B26D1C002CEFD1FFF718FF0020D9E7A9
:101F600010B50446E006010E1C2000F043F810BD39
:101F700010B50446E006010E1B2000F03BF810BD32
:101F800070B504460025BC2C01DB012510E0622C55
:101F900001DB02250CE02A2C01DB032508E0142CD0
:101FA00001DB042504E00A2C01DB052500E0062501
:101FB00029461A2000F01EF870BD70B50446B4F52D
:101FC0007A7F01DD4FF47A74042C00DA04244FF494
:101FD0007A7090FBF4F0401EC5B22946192000F03B
:101FE00009F80546264604EBD671C1F34F00FFF70A
:101FF000C7FF70BD70B505460C46FFF7A3FED020A5
:10200000FFF772FEFFF7E6FE18B1FFF7BFFE0120F3
:1020100070BD2846FFF768FEFFF7DCFE2046FFF79D
:1020200063FEFFF7D7FE18B1FFF7B0FE0120EFE720
:10203000FFF7ACFE0020EBE72DE9F04105460E4628
:1020400017469846FFF77EFE002141EA4501C8B2D7
:10205000FFF74AFEFFF7BEFE20B1FFF797FE012013
:10206000BDE8F0813046FFF73FFEFFF7B3FE0024E6
:102070000CE018F80400FFF737FEFFF7ABFE18B1CD
:10208000FFF784FE0120EBE7601CC4B2BC42F0DB2A
:10209000FFF77CFE0020E3E700BFFEE7704700008B
:1020A00070B5002100230F22C47804B3154C2468B6
:1020B00004F4E064C4F5E064210AC1F10403CA40F9
:1020C000447804FA03F184781440214309010E4C4A
:1020D0000678A155047804F01F050124AC4005786A
:1020E0006D11AD0005F1E025C5F8004109E0047867
:1020F00004F01F050124AC40044D0678761145F824
:10210000264070BD0CED00E000E400E080E100E05E
:1021100002490143024A1160704700000000FA05BD
:102120000CED00E070B500240EE00021204600F028
:10213000EEF8002504E0002000F0ADF9681CC5B2FF
:10214000802DF8DB601CC4B2082CEEDB70BD0000F3
:1021500008B50121082000F0BFF914208DF8030014
:1021600003208DF802002020ADF8000069460B48DE
:10217000FFF77EFA4FF40070ADF80000694607489B
:10218000FFF776FA012220210448FFF749FB0122DC
:1021900051020248FFF744FB08BD0000000C01405B
:1021A00070B50546002414E08020204100EA0502B5
:1021B0004FF400710D48FFF733FB012220210B483B
:1021C000FFF72EFB002220210848FFF729FB601CA7
:1021D000C4B2082CE8DB012220210448FFF720FBD1
:1021E000002220210148FFF71BFB70BD000C0140BD
:1021F00010B5012251020A48FFF712FB01222021EB
:102200000748FFF70DFB00224FF400710448FFF769
:1022100007FB002220210248FFF702FB10BD00004F
:10222000000C014010B500224FF400710648FFF782
:10223000F7FA012220210448FFF7F2FA01225102A5
:102240000148FFF7EDFA10BD000C014070B5002405
:1022500006E0002500E06D1CB5F57A7FFBD3641C19
:10226000B4F57A7FF5D3FFF773FFAE2000F003F9E2
:10227000D52000F000F9802000F0FDF8A82000F043
:10228000FAF83F2000F0F7F8D32000F0F4F800202F
:1022900000F0F1F8402000F0EEF8A12000F0EBF89B
:1022A000C82000F0E8F8DA2000F0E5F8122000F08D
:1022B000E2F8812000F0DFF8CF2000F0DCF8D92030
:1022C00000F0D9F8F12000F0D6F8DB2000F0D3F8C8
:1022D000302000F0D0F8A42000F0CDF8A62000F0C7
:1022E000CAF88D2000F0C7F8142000F0C4F8AF2021
:1022F00000F0C1F8FFF716FF70BD10B502460120CF
:1023000000E050430B1EA1F10101FAD110BD70B5E0
:1023100005460C4645F0B00000F0ADF8102141EA4A
:10232000141000F0A8F804F00F0000F0A4F870BD3D
:102330002DE9F04105460E461746721ED206110ED3
:102340006A1E5206100EFFF7E2FF002409E0A7F113
:102350002001134A02EB0111085D00F09CF8601C9B
:10236000C4B2082CF3DB721ED206110E6A1E0123C2
:1023700003EB4202D0B2FFF7CAFF00240BE0A7F143
:102380002001074A02EB011204F10801505C00F041
:1023900082F8601CC4B2082CF1DBBDE8F0810000BB
:1023A000E69800082DE9F04780460E4617461D4680
:1023B000002415E0281B411E0A20FFF79EFFB7FBF3
:1023C000F0F00A21B0FBF1F201FB120000F130093C
:1023D0003019C1B24A464046FFF7AAFF601CC4B29A
:1023E000AC42E7DBBDE8F0872DE9F047814688463F
:1023F00015461E46002D06DB2B2241464846FFF7B8
:1024000097FF2F4605E02D2241464846FFF790FFF3
:102410006F42002417E0301B411E0A20FFF76DFFBA
:10242000B7FBF0F00A21B0FBF1F201FB120000F162
:10243000300A08EB0400401CC1B252464846FFF780
:1024400077FF601CC4B2B442E5DBBDE8F0872DE93C
:10245000F04107460E461546002407E02A5D301974
:10246000C1B23846FFF764FF601CC4B2285D002883
:10247000F4D1BDE8F08110B50446FFF7B9FE78202D
:10248000FFF78EFE0020FFF78BFE2046FFF788FE49
:10249000FFF7C8FE10BD10B50446FFF7A9FE78206F
:1024A000FFF77EFE4020FFF77BFE2046FFF778FE19
:1024B000FFF7B8FE10BD000029B1064AD2690243F9
:1024C000044BDA6104E0034AD2698243014BDA61CA
:1024D000704700000010024029B1064A9269024389
:1024E000044B9A6104E0034A92698243014B9A616A
:1024F000704700000010024030B500210022002487
:1025000000232D4D6D6805F00C0121B1042905D083
:10251000082923D105E0294D056022E0274D0560FB
:102520001FE0254D6D6805F47012234D6D6805F4AC
:102530008034022505EB92421CB9214D55430560BC
:102540000BE01D4D6D6805F400351DB11C4D554364
:10255000056002E0194D5543056002E0174D056026
:1025600000BF00BF144D6D6805F0F0010909154D5D
:102570006B5C0568DD4045600F4D6D6805F4E061FA
:10258000090A104D6B5C4568DD4085600A4D6D6839
:1025900005F46051C90A0B4D6B5C4568DD40C560B0
:1025A000054D6D6805F44041890B074D6B5CC568AE
:1025B000B5FBF3F5056130BD0010024000127A0052
:1025C00000093D00140000202400002010B504463E
:1025D0002146054800F059FF00BF8021024800F065
:1025E00086FE0028F9D010BD0038014010B500F07B
:1025F00001F810BD0CB50020019000903348006830
:1026000040F480303149086000BF3048006800F471
:10261000003000900198401C0190009818B9019872
:10262000B0F5A06FF1D12948006800F4003010B176
:102630000120009001E0002000900098012843D183
:102640002348006840F010002149086008460068EF
:1026500020F0030008600846006840F002000860AF
:102660001A4840681949486008464068486008466A
:10267000406840F4806048600846406820F47C1060
:1026800048600846406840F4E81048600846006822
:1026900040F08070086000BF0C48006800F00070D7
:1026A0000028F9D00948406820F003000749486035
:1026B0000846406840F00200486000BF0348406898
:1026C00000F00C000828F9D10CBD000000100240F9
:1026D000002002401CB501240C481F210023802249
:1026E000CDE900100AA10E4805F0E2FB044624B92A
:1026F0007E220CA10FA0FDF701FE012C03D105F0F5
:102700000DF800201CBD4FF0FF30FBE784000020D7
:102710004170705461736B437265617465000000B1
:10272000D50C0008557365725C575461736B2E634A
:10273000000000004572726F723A25732C25640DFB
:102740000A000000042808D14FF0E021096941F097
:1027500004014FF0E022116107E04FF0E021096928
:1027600021F004014FF0E0221161704710B505F02F
:10277000CFFB012801D005F0C3F910BD10B51348F7
:10278000006840F00100114908600846406810499F
:1027900008400E494860084600680E4908400B4949
:1027A00008600846006820F48020086008464068F9
:1027B00020F4FE0048604FF41F008860FFF716FF0A
:1027C0004FF000600449086010BD00000010024096
:1027D0000000FFF8FFFFF6FE08ED00E010B5012154
:1027E000880700F05DF801280CD10748D0E90020E7
:1027F000521C40F100000449C1E900200121880772
:1028000000F03FF810BD00007000002010B501215D
:10281000044800F045F8012803D10121014800F0E7
:1028200030F810BD0004004010B501210E4800F042
:1028300037F8012816D10D4800880B2190FBF1F0E4
:102840000B4908800B4800880B2190FBF1F00A49E6
:1028500008800020054908800649088001210248B7
:1028600000F00FF810BD0000000800407C000020C0
:10287000780000207E0000207A000020CA430282F7
:102880007047CA430282704721B1028842F00102B8
:10289000028004E002884FF6FE731A4002807047FF
:1028A00030B50246002000230024158A05EA010302
:1028B000958905EA010413B10CB1012000E0002064
:1028C00030BD1AB183890B43838102E083898B4336
:1028D0008381704701894FF6F8721140018170477A
:1028E00070B5002400220023058C4FF6FE7635409B
:1028F0000584028C8388048B4FF68F752C40B51E9F
:102900002C400D882C43751E2A400D892A434D8882
:102910002A43144DA8420BD0134DA84208D0134DA2
:10292000A84205D0124DA84202D0124DA84213D1A0
:102930004FF6F7752A404D892A434FF6FB752A401A
:102940008D882A434FF6FF652B404FF6FF552B40ED
:102950008D892B43CD892B4383800483CD88858645
:10296000028470BD002C0140003401400040014051
:10297000004401400048014070B5002400220023BB
:10298000058C4FF6EF7635400584028C8388048BE6
:1029900048F6FF752C404FF6FF452C400D884FF64A
:1029A000FF7606EA05252C434FF6DF752A400D8990
:1029B00006EA05152A434D8806EA05152A43154DF2
:1029C000A84202D0144DA8421DD14FF67F752A406F
:1029D0004D894FF6FF7606EA05152A434FF6BF7577
:1029E0002A408D8806EA05152A434FF6FF352B400D
:1029F0004FF2FF752B408D8906EA85052B43CD8963
:102A000006EA85052B4383800483CD8805870284ED
:102A100070BD0000002C0140003401400021018005
:102A200041808180C180018141818181C181704764
:102A30008186704701877047818470470022028831
:102A40001D4B98420ED01D4B98420BD0B0F1804FD9
:102A500008D01B4B984205D01A4B984202D01A4B13
:102A6000984204D14FF68F731A404B881A43174B84
:102A7000984207D0164B984204D04FF6FF431A40B5
:102A8000CB881A4302808B8883850B8803850A4B89
:102A900098420BD0094B984208D00E4B984205D073
:102AA0000D4B984202D00D4B984201D10B7A038610
:102AB0000123838270470000002C01400034014054
:102AC0000004004000080040000C004000100040DE
:102AD0000014004000400140004401400048014013
:102AE00033A201210846FFF7B2FC33A209210120DD
:102AF000FFF7ADFC32A201210220FFF7A8FC31A2B2
:102B000007210220FFF7A3FC2FA209210220FFF7D3
:102B10009EFC2EA20F210220FFF799FC2CA201217E
:102B20000320FFF794FC2BA209210320FFF78FFC61
:102B30003DE029492948FDF7F3FF294A29492A4858
:102B400002F01EFB294A2A492A48FEF7D9FF2A4AE1
:102B50002A492B48FEF7FCFF2348006806F03CFC9E
:102B600004460223224605210120FFF73DFC1D48B3
:102B7000006806F031FC0446022322460D210120A4
:102B8000FFF732FC1548006806F026FC04460323D4
:102B9000224619460220FFF727FC03230E4802783D
:102BA0000B210220FFF7FEFB642004F079FCC0E754
:102BB0005069743A00000000526F6C3A0000000047
:102BC000543A000043000000483A0000250000008D
:102BD000526E3A004C6E3A00B4000020B000002063
:102BE000A00000209C00002098000020A8000020E9
:102BF000A6000020A4000020AE000020AC000020B1
:102C0000AA00002086B0142101A8FDF790FD05253B
:102C1000002458E02C48006806F0DEFB06463246E9
:102C20002AA101A8FDF776FB2948006806F0D4FB2D
:102C30000646324625A102A8FDF76CFB2548006830
:102C400006F0CAFB0646324620A103A8FDF762FB48
:102C5000214802781DA104A8FDF75CFB1FA105A86F
:102C6000FDF758FB01A91FA0FDF748FB02A920A012
:102C7000FDF744FB03A921A0FDF740FB04A922A016
:102C8000FDF73CFB002415E001A901EB84000421C1
:102C9000FEF7AEFB054635B901A800EB84011DA087
:102CA000FDF72CFB05E001A800EB84011EA0FDF759
:102CB00025FB641C052CE7DB21A0FDF71FFB4FF46F
:102CC000FA7004F0EDFBA5E79800002025640000F1
:102CD0009C000020B0000020B4000020656E646FEE
:102CE0006600000050697463683A25730A000000AA
:102CF000526F6C6C3A25730A0000000054656D70C9
:102D00003A2573430A00000048756D693A25252568
:102D1000730A00000A0A43414E2053656E64204F37
:102D20004B21212025730A000A0A43414E20536596
:102D30006E64204661696C656421212025730A0058
:102D400063616E2073656E6420636F6D706C746573
:102D5000206F6B210A0000001CB50020009001903C
:102D6000002409E16846FEF727FB0446002C7CD0CE
:102D7000214682A0FDF7C2FA88A16846FDF7FEFC55
:102D8000A8B90221084604F0CBFD00208449086060
:102D9000844908608248008881B28348FFF748FE72
:102DA0008048008881B28048FFF744FED8E07FA1C8
:102DB0006846FDF7E3FC50BB0021084604F0B0FD77
:102DC00077480068323076490860764800683230CB
:102DD0007449086072480068B0F57A7F04D20846EA
:102DE0000068B0F57A7F05D34FF47A706C490860BB
:102DF0006C4908606A48008881B26B48FFF718FE8A
:102E00006848008881B26848FFF714FEA8E068A10E
:102E10006846FDF7B3FC48BB0121084604F080FD7D
:102E20005F48006832305E4908605E4800683230B2
:102E30005C4908605A480068B0F57A7F04D20846B9
:102E40000068B0F57A7F05D34FF47A705449086072
:102E5000544908605248008881B25348FFF7E8FDA2
:102E60005048008881B2504801E07EE002E0FFF760
:102E7000E1FD75E04FA16846FDF780FC50BB0021E5
:102E8000084604F04DFD4648006832304449086069
:102E900008460068B0F57A7F02D34FF47A70086074
:102EA00040480068142805D93E48006814383D4958
:102EB000086002E000203B4908603948008881B280
:102EC0003948FFF7B5FD3748008881B23648FFF72B
:102ED000B1FD45E038A16846FDF750FC50BB00212C
:102EE000084604F01DFD2F48006832302D49086067
:102EF00008460068B0F57A7F02D34FF47A70086014
:102F000027480068142805D9254800681438244942
:102F1000086002E00020224908602148008881B250
:102F20002148FFF785FD1F48008881B21E48FFF742
:102F300081FD15E021A16846FDF720FC80B9002045
:102F400017490860174908601548008881B216487B
:102F5000FFF76EFD1348008881B21348FFF76AFD42
:102F6000002400200090019002E015A0FDF7C6F9B2
:102F70004FF4FA7004F094FAF4E6000063616E20F6
:102F800072782064617461204F4B21206461746108
:102F9000206C656E74683A2564200A0030000000D9
:102FA000B8000020BC0000200004004031000000F8
:102FB0003200000033000000340000003500000043
:102FC0002063616E2072782064617461206661699B
:102FD0006C6564210A00000002E00A2004F060FA37
:102FE000FBE77FB505460C4601210846FFF764FA6A
:102FF0004FF08040FFF76EFC0020ADF80A00ADF8FE
:103000000600681E80B2ADF80800601E80B2ADF800
:10301000040000208DF80C0001A94FF08040FFF75C
:103020000DFD00214FF08040FFF706FD01218807CC
:10303000FFF724FC012211469007FFF742FC1C20F9
:103040008DF8000001208DF803008DF801000020AC
:103050008DF802006846FFF723F801218807FFF783
:1030600013FC7FBD30B589B005460C460121022016
:10307000FFF722FA01210420FFF72EFA18208DF81D
:103080002300C020ADF8200003208DF8220008A9FD
:103090001A48FEF7EDFA1A48FFF71CFC0020ADF8BD
:1030A0001A00ADF81600681E80B2ADF81800ADF831
:1030B000144000208DF81C0005A91148FFF7BEFC44
:1030C00001A8FFF7ABFC6020ADF804000020ADF8CC
:1030D0000C000120ADF806000020ADF80A0001A99F
:1030E0000748FFF7FDFB01A90548FFF745FC012153
:1030F0000348FFF7C9FB09B030BD000000080140DC
:10310000000400407FB505460C4601210420FFF76E
:10311000D3F91A48FFF7DEFB0020ADF80A00ADF83E
:103120000600681E80B2ADF80800601E80B2ADF8DF
:10313000040000208DF80C0001A91048FFF77EFC68
:1031400001210E48FFF79AFB012211460B48FFF7B9
:10315000B8FB1E208DF8000001208DF8030003202D
:103160008DF8010000208DF802006846FEF798FFF8
:1031700001210248FFF788FB7FBD000000080040E6
:1031800010B540F22551124800F0BEF8F0B1012010
:10319000104908700E4800F073F90F49087008468E
:1031A00000780E490E4A127888540B48007823287C
:1031B00002D101200B49087009480078401C0849D9
:1031C000087040F22551024800F076F810BD00006A
:1031D0000038014031000020300000204C01002068
:1031E000320000203700002010B540F2255112486F
:1031F00000F08AF8F0B10120104908700E4800F084
:103200003FF90F490870084600780E490E4A1278B7
:1032100088540B480078232802D101200B490870FC
:1032200009480078401C0849087040F225510248BE
:1032300000F042F810BD00000044004031000020C2
:10324000300000204C010020320000203700002018
:1032500010B540F22551124800F056F8F0B10120A7
:10326000104908700E4800F00BF90F490870084625
:1032700000780E490E4A127888540B4800782328AB
:1032800002D101200B49087009480078401C084908
:10329000087040F22551024800F00EF810BD000001
:1032A0000048004031000020300000204C01002088
:1032B000320000203700002010B50022002340F625
:1032C0006A14A14200D100BF0A1201249440A3B2A3
:1032D000DC43048010BD21B1828942F40052828116
:1032E00004E082894DF6FF731A40828170470246DE
:1032F0000020B1F5007F00D100BF13880B400BB157
:10330000012000E00020704770B502460024002331
:103310000025002040F66A16B14200D100BFC1F37B
:10332000421501F01F03012606FA03F3012D02D115
:103330009689334006E0022D02D1168A334001E01F
:10334000968A33400C12012606FA04F4168834409B
:1033500013B10CB1012000E0002070BDF0B50346B0
:10336000002400260025002040F66A17B94200D14B
:1033700000BF1846C1F3421401F01F06012707FAE7
:1033800006F5012C01D10C3004E0022C01D11030E3
:1033900000E014301AB107682F43076002E00768A5
:1033A000AF430760F0BD00002DE9F04786B0054649
:1033B0000E460024A24600BFA1460027B08900B1F6
:1033C00000BF2F462C8A4CF6FF700440F08804435F
:1033D0002C82AC894EF6F3100440B0883189084342
:1033E000718908430443AC81AC8A4FF6FF40044026
:1033F000B0890443AC8201A8FFF77EF81F488742DA
:1034000002D1DDF810A001E0DDF80CA0A88900F4DD
:10341000004040B10AEBCA0000EB0A1031684900D5
:10342000B0FBF1F807E00AEBCA0000EB0A103168C4
:103430008900B0FBF1F86420B8FBF0F0040120092A
:10344000642101FB1089A88900F4004040B13220BA
:1034500000EBC900B0FBF1F000F00700044308E006
:10346000322000EB09106421B0FBF1F000F00F00F6
:1034700004432C8106B0BDE8F0870000003801400D
:1034800001468888C0F308007047C1F308028280B3
:103490007047000010B5044A00210448FDF731FED2
:1034A00001200349087010BDDC01002000640040C9
:1034B0008000002000BFFEE700B587B0012188032F
:1034C000FFF70AF801210420FFF706F818208DF80D
:1034D0001B004FF40070ADF8180003208DF81A009F
:1034E00006A92148FEF7C4F848208DF81B004FF4C8
:1034F0008060ADF8180003208DF81A0006A91A485C
:10350000FEF7B6F84FF4E13002900020ADF8140059
:10351000ADF810000C20ADF812000020ADF80E0040
:10352000ADF80C0002A91148FFF73EFF012240F25E
:1035300025510E48FFF712FF4FF4A060FEF7E8FD9B
:1035400025208DF8040001208DF807008DF8050076
:103550008DF8060001A8FEF7A3FD01210348FFF73F
:10356000BAFE07B000BD000000080140003801406D
:10357000490050EAC12018BF04204A0D18BF40F08E
:10358000010040F2FF72B2EB515F08BF40F0020051
:10359000012808BF052070472DE9F0414F1E00EBC0
:1035A000C7010446D1E9000115461E4637F0060260
:1035B0000DD02A46334605F0A5FA7F1E04EBC7035B
:1035C000D3E9002304F0F4FF37F00602F1D1022F13
:1035D00025D0042F13D0062F18BFBDE8F0812A464E
:1035E000334605F08FFAD4E90A2304F0E1FF2A46B6
:1035F000334605F087FAD4E9082304F0D9FF2A46B8
:10360000334605F07FFAD4E9062304F0D1FF2A46B9
:10361000334605F077FAD4E9042304F0C9FF2A46BB
:10362000334605F06FFAD4E9022304F0C1FF2A46BD
:10363000334605F067FAD4E90023BDE8F04104F011
:10364000B7BF012206F009B904F0B2BF0022134649
:103650001046114605F068B8024A0020110706F02E
:10366000FCB8000001FDFFFF30380A2801D201201C
:1036700070470020704700BF704700002DE9FE4FE3
:1036800006460F460025684601F0E8F9002442E0AE
:1036900056F8240057F82410A0EB010ABAF1000FE5
:1036A00001DB514601E0CAF10001084605F0D0FEF9
:1036B00083464FF08F4105F099FD80465DF8240068
:1036C000002105F055FE16D05DF82410404605F0A7
:1036D0008DFD82464FF07E5106F018F8814629F0A4
:1036E000004A0F48416A504605F0DEFF12D2012021
:1036F000A04005430EE00A48C169404605F0D4FEEB
:1037000005D30748016A404605F0CEFF02D20120EA
:10371000A0400543641C032CBADB2846BDE8FE8F9D
:10372000009F00082DE9F04D8D4F21F0004A86B032
:1037300005460C46BA452ADBAAEB070028430AD007
:103740008848824501DC1AD1CDB106B02846BDE8D3
:10375000F04DFFF776BF844A844B284605F0D2F936
:1037600007460E46824A834B2846214605F0CAF991
:1037700006B03A463346BDE8F04D04F019BF0120CB
:10378000FDF7BCF806B0BDE8F04DFFF75FBF7A4823
:10379000824542DABAF1795F0BDA2846FFF7E8FE94
:1037A000042808BFFFF758FF284606B02146BDE8A9
:1037B000F08D2A460B46104605F0A4F983460246D2
:1037C0006E480E460B4606217844FFF7E5FE5A4642
:1037D000334605F097F9804669488A465A4633468B
:1037E00004217844FFF7D8FE5A46334605F08AF99B
:1037F00000223B4604F0DCFE02460B4640465146A2
:1038000004F092FF2A46234605F07CF906B02A46CA
:103810002346BDE8F04D04F0CBBE284624F000411D
:1038200000223D463B4605F06BFA4FF0FF3206F0B2
:1038300014F80646024653480F460B4606217844C4
:10384000FFF7AAFE32463B4605F05CF9CDE90001E0
:103850004D4832463B4604217844FFF79DFE3246F0
:103860003B4605F04FF900222B4604F0A1FE8346AB
:1038700002913046394603F051FC804643480D46DC
:10388000504517DCDDE900015A46029B04F04CFF6D
:1038900042462B4605F036F942462B4604F088FE98
:1038A000012205F0DAFF304A304B05F01BFB304AAD
:1038B000304B4CE04FF0000A52460B46404604F0B5
:1038C00077FECDE9031052462B461046194605F007
:1038D00019F932463B4605F013FADDE9033204F0EC
:1038E00023FF06460F46DDE900015A46029B04F01D
:1038F0001BFF8346009101223046394605F0ADFF9B
:10390000194A1A4B05F0FCF906460F4601224046BB
:10391000294605F0A2FF5A46009B05F0F3F832460F
:103920003B4605F0DFFA06460F460122504629467F
:1039300005F093FF0E4DDFF858802A46434605F008
:10394000DFF932463B4605F0DBF92A46434605F0EF
:10395000D7F9002CD8BF81F0004106B0BDE8F08D4A
:103960000000F03F0000F07F075C143326A6913C76
:10397000182D4454FB21F93F0000E03F6473000020
:103980007A730000EE720000047300003333EF3FDF
:10399000FB21E93F2DE9F84F04460D4621F0004098
:1039A00000917349814211DC7249884201DC06D1E1
:1039B0002CB120462946BDE8F84FFFF742BE6E48BD
:1039C000002DCCBF6D496E49BDE8F88F6D4981422D
:1039D00011DD6D498142D8BF4FF0FF366DDD2046C5
:1039E0002946FFF7C5FD042808BFFFF735FE20462E
:1039F0002946BDE8F88F6549654F25F000458142AD
:103A000033DD6449814219DD002632464FF08043A0
:103A10002046294604F0CCFD80468A4601222046F5
:103A2000294605F01AFF00223B4605F05BFA4246A4
:103A3000534604F079FE04460D463EE0012600227E
:103A4000BA463B462046294604F0B2FD80460F4662
:103A5000002253462046294605F044FA42463B469A
:103A600004F062FE04460D4627E04B4981421BDD0F
:103A7000DFF828A10226002253462046294605F0F9
:103A800041F800223B4604F093FD80460F46002299
:103A900053462046294605F025FA42463B4604F0A7
:103AA00043FE04460D4608E0032622462B4600202E
:103AB0003B4904F039FE04460D4622462B4610468B
:103AC000194605F01FF88B46824602460B4605F064
:103AD00019F807460246334888460B4606217844C3
:103AE000FFF75AFD52465B4605F00CF882462E4819
:103AF0008B463A46434605217844FFF74DFD3A464A
:103B0000434604F0FFFF02460B46002E504659463E
:103B10000CDA04F04DFD22462B4604F0F3FF01B011
:103B200022462B46BDE8F04F05F0EAB804F040FD10
:103B300022462B4604F0E6FF1C4A7A4402EBC603F9
:103B4000D3E9002305F0CEF922462B4605F0CAF949
:103B5000174A7A4402EBC603D3E9002305F0D0F8F4
:103B6000009A002AB8BF81F00041BDE8F88F00003C
:103B7000000010440000F07F182D4454FB21F93F51
:103B8000FB21F9BF0000DC3F0000203E0000F33FB6
:103B90000000F03F0000E63F008003400000F83FD7
:103BA0000000F0BF06710000C470000062700000E9
:103BB0002A7000002DE9F04D9446CCF1000423F06A
:103BC00000464CEA0404594F46EAD4749A468846A3
:103BD00021F00042BC4206D8454240EA050442EAD0
:103BE000D474BC4204D9BDE8F04D6246FFF72CBD49
:103BF000AAF14055A5F17F6555EA0C040BD00224CB
:103C000004EAAA744A4DDFF82CE144EAD87452EA77
:103C1000000B04D00CE0BDE8F04DFFF7BBBE002C5C
:103C200014BF012CBDE8F08D022C30D0032C32D013
:103C300056EA0C0B0AD0BE4220D1BA4209D126F076
:103C4000804622F080423346114617E000291ADBF5
:103C500025E0DFF8E4B0FB44002C04BFDBE9000101
:103C6000BDE8F08D012C02BFDBE9000181F00041CD
:103C7000BDE8F08D022C0AD0032C0CD0BA4212D130
:103C8000B8F1000F0BDA2A482C49BDE8F08D284620
:103C90002B49BDE8F08D28467146BDE8F08D2448DB
:103CA0002849BDE8F08D921B12153C2AC4BF204F55
:103CB000244E10DCBAF1000FBEBF12F13C0F0027FA
:103CC0003E4608DB624604F02FFD21F00041FFF77D
:103CD00061FE07460E4694B1012C08BF86F00046EF
:103CE0000DD0194A194B022C3846314615D005F033
:103CF000F9F82A46BDE8F04D114B05F0F3B8002263
:103D000013463846314604F067FE04BF0220FCF734
:103D1000F5FD38463146BDE8F08D05F0E3F82A465A
:103D2000BDE8F04D064B04F0EBBF00000000F07F53
:103D3000182D4454FB2109C0BE6F0000FB21F9BFC0
:103D4000FB210940FB21F93F075C143326A6A13C67
:103D50002DE9F0410446E07800F0C006E07800F07C
:103D60003F05607800F0010098B1EF102846E91790
:103D700005EB5171C910A5EBC101491C01F0FF0809
:103D80000B48006820B10A4841460268384690470F
:103D900000BF607800F0080030B10548406818B1F5
:103DA000B011034A516888470020BDE8F081000047
:103DB000CC01002010B50420FEF7C4FC10480068B8
:103DC0001049B0FBF1F0104908700D4800680D492A
:103DD000B0FBF1F44FF47A70444301200B490880A2
:103DE0004FF0E020006940F002004FF0E021086150
:103DF00008464461006940F00100086110BD000000
:103E00000000002040420F00280000202A0000206F
:103E100070B5044604F07CF8012810D00B480088E7
:103E2000844206D309480088B4FBF0F5284603F025
:103E300037FB06480088B4FBF0F100FB11444FF457
:103E40007A7104FB01F000F003F870BD2A00002035
:103E500070B5034600224FF0E02675690D4E3678A6
:103E600003FB06F44FF0E026B16910E04FF0E026C6
:103E7000B06988420BD0884202D20E1A324402E066
:103E80002E1A0E4432440146A24200D300E0EDE770
:103E900000BF70BD2800002038B5044664B1202062
:103EA0008DF8000028208DF8010030208DF80200E8
:103EB00038208DF8030004E0A32204216846FCF7B3
:103EC0000CFC6A46042140F69E2002F00DFA01F037
:103ED000F7FD38BD3EB5044602208DF80000CA202B
:103EE0008DF80100E3208DF8020009208DF8030011
:103EF0006A460421682002F0F7F9A3208DF800003B
:103F000004F0400048B1C0208DF80100C8208DF8B1
:103F10000200C2208DF8030006E0A3208DF8010006
:103F20008DF802008DF8030004F4C07048B1C4207D
:103F30008DF80400CC208DF80500C6208DF8060011
:103F400006E0A3208DF804008DF805008DF806002A
:103F5000A3208DF807008DF808008DF809006A4647
:103F60000A2140F6A72002F0BFF904F0030018B1BF
:103F700020208DF8000002E0D8208DF800006A466D
:103F8000012140F6B62002F0AFF904F0200018B18C
:103F9000012000F0ADF802E0002000F0A9F804F4E0
:103FA000C07008B304F4807060B1B2208DF80000D6
:103FB0008B208DF80100B6208DF802009B208DF833
:103FC00003000BE0B0208DF8000080208DF8010088
:103FD000B4208DF8020090208DF803006A46042179
:103FE00040F6A22002F080F904F0010020B3F8208E
:103FF0008DF800006A4601214FF40B6002F074F95D
:10400000FA21072000F02CFC072000F0F3FB012030
:1040100000F013FC642000F0F3FC4FF4FA7000F0A1
:1040200002FDC821304800F0A3FB282000F0BCFBB3
:104030000A2000F0CCFB08E0D8208DF800006A468A
:1040400001214FF40B6002F04FF904F0020018B1A7
:10405000D9208DF8000002E0D8208DF800006A46D3
:10406000012140F23D7002F03FF904F0040018B164
:10407000012000F069F802E0002000F065F804F08B
:10408000100018B10120FFF707FF02E00020FFF742
:1040900003FF44F008001549488101F011FD00209C
:1040A0001249887304F0400018B10846807B801DD7
:1040B000887304F4C07020B10C48807B801D0B49CC
:1040C000887304F0140020B10848807B1030074941
:1040D000887304F0030020B10448807B001D03496D
:1040E000887300203EBD000009E3CA02CC01002015
:1040F0003EB504466CB10EA1D1E900208968CDE936
:10410000002002916A4609214FF4976002F0ECF812
:104110003EBD0AA2D2E900109268CDE901020091E9
:104120006A4609214FF4976002F0DEF8F0E70000DC
:10413000B8AAB38DB4980D355D000000B8AAAAAA3C
:10414000B088C3C5C700000038B5044664B1C020BC
:104150008DF80000C2208DF80100C4208DF8020007
:10416000C6208DF8030004E08B2204216846FCF78A
:10417000B4FA6A46042140F6982002F0B5F801F03E
:104180009FFC38BD10B5C8234FF48062024940F649
:10419000F63001F029FB10BD289F00082DE9F04FF3
:1041A0008DB00746884615469946DDE9166B002412
:1041B000002030806B49887B5A4605A901F0E0FB5E
:1041C00018B1601E0DB0BDE8F08F6648807A00F02F
:1041D0001400002867D09DF8140000069DF8151003
:1041E00040EA01409DF8161040EA01209DF81710A2
:1041F000084328609DF8180000069DF8191040EA51
:1042000001409DF81A1040EA01209DF81B10084358
:1042100068609DF81C0000069DF81D1040EA0140F2
:104220009DF81E1040EA01209DF81F100843A86069
:104230009DF8200000069DF8211040EA01409DF8FD
:10424000221040EA01209DF823100843E86004F1A1
:104250001000C4B22868001401906868001402902D
:10426000A86800140390E868001404900198404383
:10427000029901FB0100039901FB0100049901FB74
:10428000010ABAF1706F02DBBAF1885F05DD01F057
:1042900017FC00203080401E94E7B6F9000040F47F
:1042A0008070308000BF2F48807A00F0400020B33B
:1042B00005A9601C085C095D40EA012000B2A8F86D
:1042C000000005A9E01C095C05AAA01C105C41EADD
:1042D000002000B2A8F8020005A9601D095C201D9D
:1042E000105C41EA002000B2A8F80400A01DC4B28E
:1042F000B6F9000040F0080030801A48408900F408
:10430000C07008B305A9601C085C095D40EA012083
:1043100000B2388005A9E01C095C05AAA01C105C4D
:1043200041EA002000B2788005A9601D095C201DCB
:10433000105C41EA002000B2B880A01DC4B2B6F9FA
:10434000000040F0700030800648807A00F00300E2
:1043500018B105A90819FFF7FBFC484600F0D7FE85
:1043600000202FE7CC01002070B588B0064601A8D8
:1043700001F08EF8BDF804000021C90341EA504560
:10438000C4034448007A00F0030056F8200005906A
:104390004048007A00F0040010B1059840420590B2
:1043A0003C48007AC0F3C10056F820000690394816
:1043B000007A00F0200010B106984042069035487F
:1043C000007AC0F3811056F8200007903148008928
:1043D00000F4807010B10798404207900598C1170B
:1043E000A0FB042301FB043100FB0510810041EA1E
:1043F000927005900698C117A0FB042301FB0431BD
:1044000000FB0510810041EA927006900798C117E1
:10441000A0FB042301FB043100FB0510810041EAED
:10442000927007900598000E8DF808000598000C12
:104430008DF809000598000A8DF80A000598C0B2A9
:104440008DF80B000698000E8DF80C000698000CF5
:104450008DF80D000698000A8DF80E000698C0B27F
:104460008DF80F000798000E8DF810000798000CCB
:104470008DF811000798000A8DF812000798C0B255
:104480008DF8130002AA0C214FF4257001F02CFFC7
:1044900008B070BDCC01002030B585B0044616A22E
:1044A00007CA02AB07C3C82C03DD4FF0FF3005B0CD
:1044B00030BDC82090FBF4F0401E85B2280A8DF86C
:1044C0000000E8B28DF801006A46022140F2162091
:1044D00001F00AFF10B14FF0FF30E8E702AA0C210B
:1044E00040F6C12001F000FF10B14FF0FF30DEE7D1
:1044F000044884810020DAE7FEF2ABC4AAF1DFDFD2
:10450000BBAFDFDFCC0100201FB504464848007A6E
:1045100000F0030054F8200001904548007A00F0B4
:10452000040010B10198404201904148007AC0F364
:10453000C10054F8200002903D48007A00F02000AD
:1045400010B10298404202903948007AC0F38110BD
:1045500054F8200003903648008900F4807010B1B0
:104560000398404203903349019880FB0101800F7A
:1045700040EA810001902F49029880FB01108200DF
:1045800042EA917002902B49039880FB011082004F
:1045900042EA917003900198000E8DF80000019896
:1045A000000C8DF801000198000A8DF802000198B6
:1045B000C0B28DF803006A4604214FF4747001F014
:1045C00093FE18B14FF0FF3004B010BD0298000EFA
:1045D0008DF800000298000C8DF801000298000A86
:1045E0008DF802000298C0B28DF803006A460421DB
:1045F0004FF4757001F078FE10B14FF0FF30E3E733
:104600000398000E8DF800000398000C8DF801004F
:104610000398000A8DF802000398C0B28DF80300D9
:104620006A4604214FF4767001F05EFECCE700008C
:10463000CC01002009E3CA0210B586B0044647A0A9
:104640000068039046A00068029046A000680190B0
:1046500045A00068009004F0030003A9085C8DF8F1
:10466000140003A8C4F3C101405C8DF8150003A831
:10467000C4F38111405C8DF8160004F0030002A918
:10468000085C8DF8100002A8C4F3C101405C8DF8ED
:10469000110002A8C4F38111405C8DF8120005AA34
:1046A000032140F2264001F01FFE18B14FF0FF3009
:1046B00006B010BD04AA032140F22A4001F014FE06
:1046C00010B14FF0FF30F3E7019805900098049087
:1046D00004F0040058B19DF8140040F001008DF87A
:1046E00014009DF8100040F001008DF8100004F057
:1046F000200058B19DF8150040F001008DF815001C
:104700009DF8110040F001008DF8110004F4807054
:1047100058B19DF8160040F001008DF816009DF884
:10472000120040F001008DF8120005AA03214FF499
:10473000886001F0D9FD10B14FF0FF30B8E704AA4E
:10474000032140F2314001F0CFFD10B14FF0FF30B6
:10475000AEE7064804810020AAE700004CCD6C00BB
:104760000CC92C003656760026466600CC01002087
:10477000F8B505460E464FF47A7095FBF0F000FB55
:1047800006F4200E8DF80000200C8DF80100200AA0
:104790008DF80200E0B28DF803006A4604214FF460
:1047A000AE7001F0A1FDF8BD38B50446052094FBBC
:1047B000F0F084B220128DF80000E0B28DF8010014
:1047C0006A4602214FF4AD7001F08EFD38BD38B558
:1047D0000446052094FBF0F084B220128DF800000E
:1047E000E0B28DF801006A4602214FF4AC7001F08E
:1047F0007BFD38BD38B504460020009004F0010070
:1048000020B19DF8000040F03000009004F002005C
:1048100020B19DF8000040F00C00009004F004006E
:1048200020B19DF8000040F0030000906A4601218D
:104830004FF4A47001F058FD38BD38B50446012C82
:1048400001DA012402E0042C00DD0424601EC0B261
:1048500000906A46012140F24F1001F045FD38BD3D
:104860002DE9FC4706460F4606F0070010B1B7F5E4
:10487000C86F03DD4FF0FF30BDE8FC87384604F019
:10488000FFFD8146594904F0B1FC8046684600F0BE
:10489000D9FD9DF80000022806D0042816D008286B
:1048A00026D0102848D135E04FF08D41404604F025
:1048B0002FFE814604F0ACFD84B24D49404604F021
:1048C00027FE814604F0A4FD85B238E04FF08C410C
:1048D000404604F01DFE814604F09AFD84B245492D
:1048E000404604F015FE814604F092FD85B226E0B4
:1048F0004FF08B41404604F00BFE814604F088FDEA
:1049000084B23D49404604F003FE814604F080FD38
:1049100085B214E04FF08A41404604F0F9FD81462B
:1049200004F076FD84B23549404604F0F1FD81463D
:1049300004F06EFD85B202E04FF0FF309CE700BF4F
:1049400020128DF80400E0B28DF8050028128DF8D1
:104950000600E8B28DF8070006F00100A0B101AA38
:1049600002214FF4EA7001F0BFFC10B14FF0FF30AC
:1049700082E70DF1060202214FF4927001F0B4FCBF
:1049800010B14FF0FF3077E706F00200A0B101AAA6
:1049900002214FF4EC7001F0A7FC10B14FF0FF3092
:1049A0006AE70DF1060202214FF4947001F09CFCBD
:1049B00010B14FF0FF305FE706F00400A0B101AA8C
:1049C00002214FF4EE7001F08FFC10B14FF0FF3078
:1049D00052E70DF1060202214FF4967001F084FCBB
:1049E00010B14FF0FF3047E7002045E70000484393
:1049F000000040460000C045000040450000C044A3
:104A000038B50446052094FBF0F085B228128DF8E5
:104A10000000E8B28DF801006A4602214FF4EF7001
:104A200001F062FC38BD38B50446052094FBF0F077
:104A300085B228128DF80000E8B28DF801006A46B0
:104A400002214FF4ED7001F04FFC38BD70B5044603
:104A50000D46E0B2FDF7BAFD204670BD7CB50546B7
:104A600028494968087801AB04220D21FDF73EFA78
:104A700008B107207CBD9DF80700C0F301109DF828
:104A8000041001F0E00140EAE1008DF800009DF81B
:104A90000700C0F381009DF8051001F0E00140EA35
:104AA000E1008DF801009DF8070000F003009DF87B
:104AB000061001F0E00140EAE1008DF80200002458
:104AC0001CE01DF8040018B9002045F8240013E08C
:104AD0000D4845F8240006E055F824000B4904F081
:104AE00017FD45F824001DF80400401EC0B20DF863
:104AF00004000028F0D100BF601CC4B2032CE0DB2E
:104B00000020B7E7380000207B14AE3E1D5A843FDA
:104B10002DE9F04F87B005460C46914601208DF8EF
:104B2000100000208DF81100FE4A1268917CFD4AA9
:104B30005268107804AB0222FDF77EFA20B14FF0E4
:104B4000FF3007B0BDE8F08FC820FFF761F9002003
:104B50008DF81000F34A1268D17BF24A526810783F
:104B600004AB0122FDF768FA10B14FF0FF30E8E71F
:104B7000EC4A12685179EB4A5268107804AB012272
:104B8000FDF75AFA10B14FF0FF30DAE7E54A126844
:104B9000917CE44A5268107804AB0122FDF74CFA8C
:104BA00010B14FF0FF30CCE7DE4A1268D17DDD4A0C
:104BB0005268107804AB0122FDF73EFA10B14FF0B5
:104BC000FF30BEE7D74A12681179D64A526810788A
:104BD00004AB0122FDF730FA10B14FF0FF30B0E71F
:104BE0000C208DF81000CF4A12681179CD4A526816
:104BF000107804AB0122FDF71FFA10B14FF0FF301F
:104C00009FE70F20FFF704F9C648806A407A8DF8C5
:104C10001000C44A12689178C24A5268107804ABF6
:104C20000122FDF709FA10B14FF0FF3089E7BD48C6
:104C3000806A007A8DF81000BA4A12685178B94A31
:104C40005268107804AB0122FDF7F6F910B14FF06D
:104C5000FF3076E7B9F1000F07D0B248806A807A5A
:104C600040F0E0008DF8100004E0AE48806A807AE1
:104C70008DF81000AB4A12689179AA4A52681078F0
:104C800004AB0122FDF7D8F910B14FF0FF3058E71F
:104C9000B9F1000F07D0A348806AC07A40F0E00065
:104CA0008DF8100003E0A048C07A8DF810009D4AEE
:104CB0001268D1799B4A5268107804AB0122FDF743
:104CC000BBF910B14FF0FF303BE7B9F1000F02D054
:104CD000C820FFF79DF840208DF81000914A126817
:104CE0001179904A5268107804AB0122FDF7A4F9BB
:104CF00010B14FF0FF3024E778208DF81000894A7A
:104D000012685179874A5268107804AB0122FDF786
:104D100093F910B14FF0FF3013E783498889FFF70B
:104D200077F800208DF810007E4A126851797D4A8C
:104D30005268107804AB0122FDF77EF910B14FF0F4
:104D4000FF30FEE6774A1268917A764A5268107808
:104D500004AB0222FDF7CAF810B14FF0FF30F0E6C5
:104D60009DF811009DF8101040EA012B0C209BFBD0
:104D7000F0F0C6B20020A86068602860A0606060A3
:104D80002060824665E0674A1268D17A654A5268B7
:104D9000107804AB0C22FDF7A9F810B14FF0FF30EA
:104DA000CFE69DF811009DF8101040EA012000B2F6
:104DB000ADF808009DF813009DF8121040EA01209C
:104DC00000B2ADF80A009DF815009DF8141040EAF5
:104DD000012000B2ADF80C00BDF9081020680844AD
:104DE0002060BDF90A10606808446060BDF90C10CD
:104DF000A0680844A0609DF817009DF8161040EACE
:104E0000012000B2ADF800009DF819009DF81810BF
:104E100040EA012000B2ADF802009DF81B009DF8A9
:104E20001A1040EA012000B2ADF80400BDF90010EC
:104E3000286808442860BDF9021068680844686062
:104E4000BDF90410A8680844A8600AF1010000F048
:104E5000FF0AB24597DB3448D0F800C02868C11774
:104E6000090441EA10410704624600233846FBF773
:104E700020FA32460023CDE90201FBF71AFA286036
:104E80002948D0F800C06868C117090441EA1041F8
:104E90000704624600233846FBF70BFA324600232C
:104EA000CDE90201FBF705FA68601F48D0F800C0A1
:104EB000A868C117090441EA1041070462460023AB
:104EC0003846FBF7F6F932460023CDE90201FBF73D
:104ED000F0F9A8601448D0F804C02068C11709048C
:104EE00041EA10410704624600233846FBF7E1F926
:104EF00032460023CDE90201FBF7DBF920600A48C6
:104F0000D0F804C06068C117090441EA10410704E1
:104F1000624600233846FBF7CCF932460023CDE940
:104F2000020103E038000020009F0008FBF7C1F9F0
:104F300060601148D0F804C0A068C117090441EAB4
:104F400010410704624600233846FBF7B2F93246A7
:104F50000023CDE90201FBF7ACF9A060A0680028AE
:104F600004DDA068A0F58030A06003E0A06800F533
:104F70008030A0600020E4E5009F00082DE9FC5F80
:104F800006460F4600253D494968087801AB0322D3
:104F90000D21FCF7ABFF10B10720BDE8FC9F9DF889
:104FA000040000F01F008DF804009DF8050000F0DB
:104FB0001F008DF805009DF8060000F01F008DF819
:104FC0000600002456E056F8240057F82410A0EB01
:104FD000010BBBF1000F01DB594601E0CBF10001F1
:104FE000084604F035FA4FF08F41009004F0FEF8C7
:104FF000814601A8005D68B32149086804F040FAC1
:10500000834659461F4804F0F1F8804604E01E49E3
:10501000404604F07DFA804601A8005D401EC0B203
:1050200001A908550028F2D14146484604F0DEF8AF
:1050300083464FF07E5104F069FB82462AF0004B14
:105040000F488169584604F02FFB12D20120A0407E
:1050500005430EE00A480169484604F025FA05D3E5
:1050600007484169484604F01FFB02D20120A040D6
:105070000543641C032CA6DB28468EE7380000207D
:10508000009F000800B04C4554E3853F10B504462E
:10509000204600F00FF80346E01C00F00BF843EA4E
:1050A000C00083B2A01D00F005F843EA801083B26F
:1050B000184610BD014691F90020002A01DD0020AC
:1050C0001EE091F90020002A01DA042018E091F98D
:1050D0000120002A01DD012012E091F90120002ABF
:1050E00001DA05200CE091F90220002A01DD0220FE
:1050F00006E091F90220002A01DA062000E00720EC
:105100007047FCF794FBFDF7E5FA00BFFEE7704738
:1051100070B50446002624F00104184890F82400D5
:1051200008B1002070BD1548807A10B94FF0FF30EB
:10513000F8E71248057C807A204010490874084638
:10514000007CA04202D04FF0FF3600E0002614B9E8
:105150000A48007D18B1012001F098FF02E000200C
:1051600001F094FF3CB100F0ABFC20B103480574A2
:105170004FF0FF30D6E73046D4E70000380000207B
:105180002DE9F04F99B004460D4616464FF07E5774
:105190004FF000084FF000094FF0000A12A813A9C1
:1051A00018AB0EAACDE9001014A916A8FEF7F6FF59
:1051B00018B1012019B0BDE8F08FBDF84C0000F423
:1051C000807000287ED00E9804F042F983464FF09C
:1051D0009D4104F00BF807460F9804F039F9834617
:1051E0004FF09D4104F002F88046109804F030F929
:1051F00083464FF09D4103F0F9FF8146119804F07A
:1052000027F983464FF09D4103F0F0FF824639466F
:105210004FF0804004F07CF94946059004F078F99D
:10522000414607904FF0404004F072F95146059016
:1052300004F06EF90690079903F06AFF834603F0C5
:105240003BFFCDE90801FEF76DFA4FF06632544B93
:10525000CDE90A0103F056FCCDE90C0103F076F923
:10526000206049464FF0804004F052F949460290D0
:1052700004F04EF9414604904FF0404004F048F9E4
:105280004146029004F044F90390049904F03EFA78
:1052900083464FF07E5103F03BFF059003F00CFF77
:1052A000CDE9080139464FF0804004F031F941461C
:1052B000039004F02DF9494604904FF0804004F02B
:1052C00027F900E068E05146039004F021F9834695
:1052D000049903F01DFF059003F0EEFECDE90601F1
:1052E000DDE90823FEF766FC4FF066322C4BCDE972
:1052F0000A0103F007FCCDE90C0103F027F928604F
:105300005146504604F004F949460490484604F0DA
:10531000FFF841460390404604F0FAF83946019000
:10532000384604F0F5F80090019903F0F1FE029080
:10533000039904F0EBF98346049904F0E7F905902A
:1053400003F0BAFECDE908015146384604F0E0F812
:1053500049460490404604F0DBF80390049903F0BA
:10536000D7FE4FF08041059004F0D2F8834603F059
:10537000A3FECDE90601DDE90823FEF71BFC4FF093
:105380006632074BCDE90A0103F0BCFBCDE90C0105
:1053900003F0DCF8306001E002200BE7002009E7B1
:1053A00066A64C4070B50024FCF726FC00F024F9FA
:1053B000002840D1782000F02FFFC4B20CB10120AA
:1053C00070BD7820FFF7A4FEC4B20CB10220F7E74D
:1053D000642000F0D3FEC4B20CB10320F0E7FEF766
:1053E000D1FEC4B20CB10420EAE71548FFF74EFE27
:1053F0000546FFF721F9C4B20CB10520E0E740F201
:105400007310FEF767FDC4B20CB10620D8E7642024
:10541000FFF742F8C4B20CB10720D1E701F0ECFD70
:1054200004460CB10820CBE7012000F0A3FDC4B274
:105430001CB10920C4E70A20C2E70020C0E7000031
:105440006400002001461148407A30B1012807D09D
:10545000022808D003280CD108E0022008700BE0D5
:105460000420087008E00820087005E0102008708B
:1054700002E04FF0FF30704700BF0448C07C18B115
:1054800008784006000E08700020F4E7380000207D
:1054900001461348407A30B1012808D002280AD0CA
:1054A000032810D10BE04FF4804008800EE041F655
:1054B0009C7008800AE04FF48050088006E04FF4AA
:1054C0000060088002E04FF0FF30704700BF0448E2
:1054D000C07C10B10888401008800020F5E700006B
:1054E0003800002001460248007C08700020704708
:1054F0003800002001460F48007A30B1012807D05B
:10550000022809D003280FD10AE0FA2008800EE013
:105510004FF4FA7008800AE04FF47A70088006E0D1
:105520004FF4FA60088002E00020088000BF00BF4E
:10553000002070473800002001460E48007A30B144
:10554000012807D0022808D003280CD108E00A4817
:1055500008600BE00948086008E00948086005E0B9
:105560000848086002E04FF0FF30704700BF00209D
:10557000FBE70000380000200000034300008342E6
:10558000333303423333834101461248C07A08283B
:1055900017D2DFE800F01704070A0D101318BC201B
:1055A000088013E06220088010E02A2008800DE0C7
:1055B000142008800AE00A20088007E005200880FF
:1055C00004E000BF00BF0020088000BF00BF002033
:1055D00070470000380000200146064890F824007B
:1055E00010B14FF0FF3070470248C089088000209A
:1055F000F9E70000380000201CB580208DF800007D
:10560000654A1268917C644A526810786B460122A0
:10561000FCF712FD10B14FF0FF301CBD6420FEF707
:10562000F7FB00208DF800005B4A1268917C5A4A13
:10563000526810786B460122FCF7FEFC10B14FF067
:10564000FF30EAE7544A1268917D534A5268107855
:105650006B460622FCF74AFC10B14FF0FF30DCE746
:105660009DF80500C007400F9DF8031001F00101EF
:1056700040EA41009DF8011001F0010140EA0104F7
:1056800094B1012C03D101214348C17431E0022CB3
:1056900003D100214048C1742BE021463FA0FAF716
:1056A0002DFE4FF0FF30B8E73B4A1268D1783A4AF6
:1056B000526810786B460122FCF718FC10B14FF0CD
:1056C000FF30AAE79DF8000000F00F042CB93D4818
:1056D000FAF714FE4FF0FF309FE7042C06D13AA0F2
:1056E000FAF70CFE01212C48C17402E000212A487F
:1056F000C174FF2128488172FF2027490872FF21C9
:1057000025484172C1724FF6FF71C181FF210174BA
:1057100081740121017380F82210002180F8231088
:10572000417501751630016041608160163880F85E
:10573000241080F82510C1844FF4FA6000F062FC58
:1057400010B14FF0FF3068E7022000F02BFB10B1E2
:105750004FF0FF3061E72A2000F0CEFC10B14FF08F
:10576000FF305AE7322000F009FD10B14FF0FF3052
:1057700053E70020FFF7CCFC10B14FF0FF304CE7AF
:10578000002000F051FB10B14FF0FF3045E7002042
:1057900000F042FD002040E738000020556E737590
:1057A00070706F7274656420736F66747761726570
:1057B0002070726F64756374207265762025642E84
:1057C0000A00000020AC000848616C662073656E1A
:1057D0007369746976697479207061727420666F78
:1057E000756E642E0A0000002DE9F04385B0054671
:1057F0000E4690469946294890F8250020B14FF072
:10580000FF3005B0BDE8F08316B94FF0FF30F8E780
:10581000002423E0281B102801DD102000E0281BB5
:1058200087B232193946204600F05EFD10B14FF0C4
:10583000FF30E6E701AA3946204600F001F910B131
:105840004FF0FF30DDE730193A4601A9FAF7A2FE22
:1058500010B16FF00100D4E7E01984B2AC42D9DB9B
:105860004FEA28208DF8000008F0FF008DF80100B5
:105870000A4A1268917E094A526810786B460222E1
:10588000FCF7DAFB10B14FF0FF30BAE70121034813
:1058900080F82510A0F826900020B2E738000020FC
:1058A00038B50446282C02DD4FF0FF3038BDDCB996
:1058B000002000F0EBFB00208DF8000007208DF8A1
:1058C00001002E4A1268917C2C4A526810786B466F
:1058D0000222FCF7B1FB10B14FF0FF30E6E70021E8
:1058E000264801750020E1E7012000F0CFFB2020D1
:1058F0008DF80000012C06D100208DF80100052054
:1059000000F0FAFB17E0052C06DC01208DF8010001
:10591000052000F0F1FB0EE0142C06DC02208DF8CF
:1059200001000A2000F0E8FB05E003208DF80100EB
:10593000142000F0E1FB9DF80100072101EB80102D
:10594000C0B28DF801000D4A1268917C0B4A526872
:1059500010786B460222FCF76FFB10B14FF0FF305E
:10596000A4E7082105488172002101730121017516
:105970000020FFF7CDFB002098E700003800002052
:10598000F8B504460F4616462C4890F8240010B986
:105990004FF0FF30F8BD2948807A10B94FF0FF3042
:1059A000F8E7264A1268917A244A526810786B46C2
:1059B0000222FCF79BFA10B14FF0FF30EAE79DF8A6
:1059C00001009DF8001040EA0125A54203DA0020FD
:1059D0003070401EDEE7194840684088B5EB600F24
:1059E00017DD164A1268517C144A526810786B46CB
:1059F0000122FCF77BFA10B14FF0FF30CAE79DF8A7
:105A0000000000F0100020B100F05AF86FF0010023
:105A1000C0E7E2B2094B1B68D97A084B5B6818787B
:105A20003B46FCF763FA10B14FF0FF30B2E795FB4D
:105A3000F4F0401E30700020ACE700003800002079
:105A4000F8B504460D46164616B94FF0FF30F8BDBE
:105A50001A48807A10B94FF0FF30F8E720128DF81D
:105A60000000E0B28DF801009DF8010028441349C0
:105A700049684989884202DD4FF0FF30E7E70F4A65
:105A80001268117E0D4A526810786B460222FCF7AC
:105A9000D3FA10B14FF0FF30D9E7EAB2074B1B68D9
:105AA000597D064B5B6818783346FCF71FFA10B136
:105AB0004FF0FF30CBE70020C9E70000380000209E
:105AC00008B57048807A10B94FF0FF3008BD00204B
:105AD00000906C4A1268D17B6A4A526810786B4613
