:020000040800F2
:10000000F83200203102000801120008910C0008AB
:10001000FD110008790A0008271E000800000000F2
:10002000000000000000000000000000990100082E
:10003000990A000800000000DD0100086D150008A5
:100040004B0200084B0200084B0200084B0200085C
:100050004B0200084B0200084B0200084B0200084C
:100060004B0200084B0200084B0200084B0200083C
:100070004B0200084B0200084B0200084B0200082C
:100080004B0200084B0200084B0200084B0200081C
:100090004B0200084B0200084B0200084B0200080C
:1000A0004B0200084B0200084B0200084B020008FC
:1000B000DD1500080D160008291600084B0200087F
:1000C0004B0200084B0200084B0200084B020008DC
:1000D0004B020008151B00087D1B0008E51B0008EB
:1000E0009D0A00084B0200084B02000800F002F8CD
:1000F00000F042F80AA090E8000C82448344AAF180
:100100000107DA4501D100F037F8AFF2090EBAE87D
:100110000F0013F0010F18BFFB1A43F0010318473B
:10012000E864000008650000103A24BF78C878C170
:10013000FAD8520724BF30C830C144BF04680C60ED
:10014000704700000023002400250026103A28BF35
:1001500078C1FBD8520728BF30C148BF0B60704739
:10016000642900F0BD80732900F00A8300207047E5
:100170001FB51FBD10B510BD00F020FB1146FFF7E5
:10018000F7FF01F087FF00F03EFB03B4FFF7F2FF3B
:1001900003BC01F002FF0000224B19680868B0E8B8
:1001A000F00F80F30988BFF36F8F4FF0000080F3EA
:1001B00011884EF00D0E70470000000006480068E0
:1001C000006880F3088862B661B6BFF34F8FBFF353
:1001D0006F8F00DF00BF00BF08ED00E0EFF3098084
:1001E000BFF36F8F0F4B1A6820E9F00F106008B54E
:1001F0004FF0500080F31188BFF34F8FBFF36F8F24
:1002000003F0D4F84FF0000080F31188BDE80840F7
:1002100019680868B0E8F00F80F30988BFF36F8FA2
:10022000704700BF64000020EFF3058070470000B6
:100230000948804709480047FEE7FEE7FEE7FEE77A
:10024000FEE7FEE7FEE7FEE7FEE7FEE704480549B6
:10025000054A064B704700007D150008ED000008B8
:10026000F82C0020F8320020F82E0020F82E002074
:10027000704700000FB4044910B503AA029800F0BB
:1002800083FA10BC5DF814FB2C00002070B50C46FE
:100290000546012A05D02878800600D5EA690023A2
:1002A00002E0012305E05B1C934202D2E05C0028DF
:1002B000F9D1A869E618C01AA861286A184428620A
:1002C0002846AFF3008004E0D5E9012114F8010BC2
:1002D0009047B442F8D32846AFF3008070BD0000C9
:1002E0002DE9F0410646002410687529314616A50F
:1002F00010D0AFF30080002802DA404213A507E0D7
:1003000031688A0701D512A502E0490704D511A575
:10031000012401E0AFF3008000210A2206F1240746
:1003200009E0B0FBF2FCB0FBF2F302FB1C00303042
:1003300078541846491C0028F3D123462A463046F3
:10034000BDE8F04100F098B9000000002D00000069
:100350002B000000200000002DE9F05F89460446D4
:100360004FF0000ADFF874B1FB44C0F820A020462B
:10037000E1688847002874D0252806D0D4E90121F7
:100380009047206A401C2062F1E700265F46204625
:10039000E16888472028054607DB312D05D278190A
:1003A00010F8200C08B10643F1E7B00701D526F09C
:1003B0000406C4F81CA00027C4F818A02A2D09D0F0
:1003C000284601F0E3FD38B304EB8708303DC8F858
:1003D000185019E059F8041B204604EB870291617C
:1003E000E1688847012F054618D1E069002820DA26
:1003F00026F020061DE0D8F8180000EB800005EB81
:1004000040003038C8F818002046E16888470546A3
:1004100001F0BCFD0028EED1012F0AD02E2D08D10D
:100420002046E16888477F1C0546022F46F02006DB
:10043000C4DBA069002803DA404246F00106A0614F
:10044000F00701D026F010066C2D0BD0682D09D0D6
:100450004C2D39D06A2D35D0742D35D07A2D33D02E
:1004600016E038E0E1682F4620468847B842054646
:1004700009D16C2F26D04FF48060E16806432046F6
:100480008847054604E06C2F1AD04FF4807006436D
:100490000DB3A5F14100192802D8203546F40066B5
:1004A0004A462946204626604E46FFF759FE80B14F
:1004B00001280BD0F61D26F0070000F1080956E7C9
:1004C0004020E4E78020D8E70020D6E706F10409C1
:1004D0004DE7284652E7206ABDE8F09F8A62000097
:1004E000032A40F2308010F0030C00F0158011F860
:1004F000013BBCF1020F624498BF11F801CB00F838
:10050000013B38BF11F8013BA2F1040298BF00F88B
:1005100001CB38BF00F8013B11F0030300F0258048
:10052000083AC0F0088051F8043B083A51F804CB6F
:10053000A0E80810F5E7121D5CBF51F8043B40F835
:10054000043BAFF30080D20724BF11F8013B11F840
:1005500001CB48BF11F8012B24BF00F8013B00F884
:1005600001CB48BF00F8012B704710B5203AC0F00E
:100570000B80B1E81850203AA0E81850B1E81850A4
:10058000A0E81850BFF4F5AF5FEA027C24BFB1E8E1
:100590001850A0E8185044BF18C918C0BDE8104052
:1005A0005FEA827C24BF51F8043B40F8043B08BF5B
:1005B0007047D20728BF31F8023B48BF11F8012B22
:1005C00028BF20F8023B48BF00F8012B704702F01B
:1005D000FF0343EA032242EA024200F002B84FF06E
:1005E00000020429C0F0128010F0030C00F01B8000
:1005F000CCF1040CBCF1020F18BF00F8012BA8BF0E
:1006000020F8022BA1EB0C0100F00DB85FEAC17CD1
:1006100024BF00F8012B00F8012B48BF00F8012B84
:1006200070474FF0000200B51346944696462039B5
:1006300022BFA0E80C50A0E80C50B1F12001BFF49B
:10064000F7AF090728BFA0E80C5048BF0CC05DF801
:1006500004EB890028BF40F8042B08BF704748BF4F
:1006600020F8022B11F0804F18BF00F8012B7047C3
:1006700070477047704770472DE9F0470D4699461F
:100680009246044600F124080168880604D5E06912
:1006900021F01001216000E00120A84201DD471B8C
:1006A00000E00027A1697A1902EB0900081AA0618D
:1006B0002078C00602D42046AFF30080002608E070
:1006C000D4E901211AF806009047206A401C761CE4
:1006D00020624E45F4DB2078C0060AD52046AFF3F1
:1006E000008006E0D4E9012130209047206A401CB8
:1006F0002062381EA7F10107F4DC07E0D4E90121EC
:1007000018F805009047206A401C2062281EA5F1B9
:100710000105F3DC2046AFF300802078000602D507
:100720000220BDE8F0870120FBE7000001694A1CB8
:1007300002610878704700B58FB0CDE90131002122
:10074000059105497944CDE9031011466846FFF744
:1007500003FE0FB000BD0000E5FFFFFF10B54369C9
:1007600013B1AFF3008001E0FFF790FD012010BD51
:10077000127800F124010A7000224A700122EDE78C
:1007800011684FF0FF32E9E7074B70B50D467B4427
:10079000FFF7D1FF0446284600F008F810B14FF0EB
:1007A000FF3070BD204670BDF3180000007B00F0E4
:1007B0008000704700487047982C00207546FFF76E
:1007C000F9FFAE4605006946534620F0070085460E
:1007D00018B020B5FFF73AFDBDE820404FF0000605
:1007E0004FF000074FF000084FF0000B21F0070119
:1007F000AC46ACE8C009ACE8C009ACE8C009ACE85C
:10080000C0098D46704710B50446AFF300802046FE
:10081000BDE81040FFF7B9BC21B1826842F0010287
:10082000826003E0826822F0010282607047014624
:1008300000208A6802F004020AB1012000E00020D2
:1008400070470146C86C80B27047024600201368AA
:100850000B400BB1012000E0002070470146002052
:100860008A6802F008020AB1012000E00020704707
:1008700030B502460020002350680F4C20400D790F
:100880000C6844EA05242043506090680B4C2040DB
:10089000D1E902542C434D7944EA45042043906049
:1008A000D06A20F470000C7C641EE4B2234340EA5A
:1008B0000350D06230BD0000FFFEF0FFFDF7F1FFF6
:1008C000F0B504460D4600200021092D11DDE06839
:1008D000A5F10A0606EB4607072606FA07F1884344
:1008E000A5F10A0606EB460603FA06F10843E060A6
:1008F0000CE0206905EB4507072606FA07F1884357
:1009000005EB450603FA06F108432061072A0FDAD2
:10091000606B561E06EB86071F2606FA07F1884312
:10092000561E06EB860605FA06F10843606322E0D0
:100930000D2A0FDA206BD61F06EB86071F2606FA54
:1009400007F18843D61F06EB860605FA06F1084331
:10095000206310E0E06AA2F10D0606EB86071F2671
:1009600006FA07F18843A2F10D0606EB860605FAA2
:1009700006F10843E062F0BD816841F00801816042
:10098000704721B1826842F4A002826003E082686D
:1009900022F4A00282607047816841F00401816006
:1009A0007047000010B5044606230122214609487D
:1009B000FFF786FF01210748FFF7E3FF00BF022191
:1009C0000448FFF742FF0028F9D00248FFF739FF3B
:1009D00010BD0000002401401CB5012402F0F2F912
:1009E00014481E2100232202CDE9001012A1144850
:1009F00002F0C6FF044624B9AD2212A115A0FFF7EC
:100A000039FC18481D2100234FF48072CDE90010F5
:100A100015A1174802F0B4FF044624B9B92209A170
:100A20000CA0FFF727FC1348006802F057FB02F008
:100A30000BFA1CBD4C0000205461736B5F3000004A
:100A400089170008557365725C575461736B2E6388
:100A5000000000004572726F723A25732C25640DF8
:100A60000A000000500000205461736B5F310000E9
:100A7000ED1900084800002000BFFEE710B5002176
:100A8000044A116051604FF4E1514FF47A7000F064
:100A9000FFFF10BD380000207047000010B54FF474
:100AA000805000F025F8012808D10C480088401C2F
:100AB0000A4908804FF4805000F014F84FF40040C9
:100AC00000F016F8012808D105480088401C0449A8
:100AD00008804FF4004000F005F810BD44000020ED
:100AE00046000020014908607047000014040140DE
:100AF000014600200022074B1B6803EA0102054B58
:100B000014331B680B4013B10AB1012000E0002030
:100B100070470000000401402DE9F0410246002525
:100B20000026002000230024002791F803C00CF0C9
:100B30000F0591F803C00CF0100CBCF1000F03D0AE
:100B400091F802C04CEA050591F800C0BCF1000F15
:100B500031D0146800202BE04FF0010C0CFA00F3A8
:100B6000B1F800C00CEA03069E4220D183004FF08A
:100B70000F0C0CFA03F7BC4305FA03FC4CEA04041F
:100B800091F803C0BCF1280F06D14FF0010C0CFA0C
:100B900000FCC2F814C00AE091F803C0BCF1480F91
:100BA00005D14FF0010C0CFA00FCC2F810C0401C3B
:100BB0000828D1D31460B1F800C0BCF1FF0F34DDB8
:100BC000546800202EE000F1080C4FF0010808FAEC
:100BD0000CF3B1F800C00CEA03069E4221D1830059
:100BE0004FF00F0C0CFA03F7BC4305FA03FC4CEA78
:100BF000040491F803C0BCF1280F05D100F1080CE2
:100C000008FA0CF8C2F8148091F803C0BCF1480F40
:100C100007D100F1080C4FF0010808FA0CF8C2F8EF
:100C20001080401C0828CED35460BDE8F0810246F5
:100C3000002093680B400BB1012000E000207047BA
:100C4000416170470161704710B508480278084952
:100C50000848FFF745FC054801780548FFF7BFFC49
:100C6000002002490870034810BD00003200002037
:100C7000EC0000202C0100200448007820B1002066
:100C800002490870012070470020FCE7370000206F
:100C900000BFFEE70EB54FF4407000F0EBFA01F034
:100CA0007FF9FFF7EBFE01F017F901F0BFF800F054
:100CB000C5F8002080231A460146009000F07FF816
:100CC00000201021CDE900014FF6FF731BA2052182
:100CD0000290142000F028FA00201021CDE9000134
:100CE0004FF6FF7316A219210290052000F01CFA9E
:100CF00000201021CDE900014FF6FF7312A2282138
:100D00000290052000F010FA00201021CDE900012A
:100D10004FF6FF730EA241210290052000F004FA65
:100D200000201021CDE900014FF6FF730AA25521E2
:100D30000290052000F0F8F90EBD000054583A006A
:100D400054656D703A00000048756D693A00000006
:100D50005069743A00000000526F6C3A00000000C5
:100D60002DE9F04104460D4616461F462A2000F0A4
:100D70000BFAA11C88B200F0F8F9B11C88B200F09F
:100D8000F4F92B2000F000FAE91C88B200F0EDF92C
:100D9000F91C88B200F0E9F92C2000F0F5F9BDE863
:100DA000F08170B504460D4616462B46224629466C
:100DB0002046FFF7D5FF304600F0D7F970BD2DE98A
:100DC000F04706460F4614461D46DDF820A0681E73
:100DD00083B2601E82B239463046FFF7C1FFB84683
:100DE0000EE0B14606E0504600F0BFF909F10100FF
:100DF0001FFA80F9A145F6DB08F101001FFA80F81F
:100E0000A845EEDBBDE8F08708B50121042000F01D
:100E100057FA3F20ADF8000010208DF803000320A2
:100E20008DF8020069460448FFF776FE3F2102482C
:100E3000FFF708FF08BD00000008014010B5FFF7EC
:100E4000E3FF04217A48FFF7FBFE642001F0D6F8A7
:100E500004217748FFF7F6FE642001F0CFF8202147
:100E60007348FFF7EFFE642001F0C8F8112000F08E
:100E70008BF9782001F0C2F8B12000F085F902204A
:100E800000F07CF9352000F079F9362000F076F991
:100E9000B22000F079F9022000F070F9352000F05E
:100EA0006DF9362000F06AF9B32000F06DF90220E8
:100EB00000F064F9352000F061F9362000F05EF9A9
:100EC000022000F05BF9352000F058F9362000F0E0
:100ED00055F9B42000F058F9032000F04FF9C02074
:100EE00000F052F9A22000F049F9022000F046F982
:100EF000842000F043F9C12000F046F9C52000F03D
:100F00003DF9C22000F040F90D2000F037F9002033
:100F100000F034F9C32000F037F98D2000F02EF9ED
:100F20002A2000F02BF9C42000F02EF98D2000F0CB
:100F300025F9EE2000F022F9C52000F025F90A205D
:100F400000F01CF9362000F01FF9C82000F016F957
:100F5000E02000F019F9122000F010F91C2000F038
:100F60000DF9102000F00AF9182000F007F93320DD
:100F700000F004F92C2000F001F9252000F0FEF823
:100F8000282000F0FBF8282000F0F8F8272000F0D7
:100F9000F5F82F2000F0F2F83C2000F0EFF80020E8
:100FA00000F0ECF8032000F0E9F8032000F0E6F888
:100FB000102000F0E3F8E12000F0E6F8122000F045
:100FC000DDF81C2000F0DAF8102000F0D7F8182027
:100FD00000F0D4F82D2000F0D1F8282000F0CEF851
:100FE000232000F0CBF8282000F0C8F8282000F0DB
:100FF000C5F8262000F0C2F82F2000F0BFF83B20F3
:1010000000F0BCF8002000F0B9F8032000F0B6F8BA
:10101000032000F0B3F8102000F0B0F83A2000F000
:10102000B3F8052000F0AAF8292000F0ADF810BDB3
:10103000000801402DE9FF4F83B005468A46174658
:10104000119CAB46204604EBD071C1F347063046F5
:10105000F11706EB5171C910614389B20191A7F1F3
:101060002000C7B20AEB0400401E83B2A819401E3C
:1010700082B251462846FFF773FE4FF000094AE05E
:10108000102C06D1264800EB071010F8090002903A
:101090000BE0202C06D1234800EB871010F8090044
:1010A000029002E007B0BDE8F08F4FF000082AE0A0
:1010B000129868B9012000FA08F00299084018B1A6
:1010C000069800F052F81AE0109800F04EF816E07A
:1010D000012000FA08F00299084020B15146284644
:1010E000069AFFF75EFE681C85B2A5EB0B00B042C6
:1010F00005D15D460AF101001FFA80FA06E008F109
:10110000010000F0FF08B8F1080FD1DB00BF09F1C2
:1011100001001FFA80F901988145B1DB00BFC1E7EA
:10112000A0430008904900082DE9FE4F06460F46EF
:1011300014469846DDE90D5ADDF8309010E0CDE90F
:10114000015ACDF800902278434639463046FFF7E1
:1011500071FF284605EBD07106EB61018EB2641C6D
:1011600020780028EBD1BDE8FE8F10B50446201290
:1011700000F01AF8E0B200F017F810BD10B5044600
:10118000204600F011F810BD10B5044608210548AE
:10119000FFF756FD204600F007F808210148FFF749
:1011A00051FD10BD0008014070B5044610211248E1
:1011B000FFF746FD002517E001210F48FFF740FD2E
:1011C00004F0800020B102210B48FFF73BFD03E053
:1011D00002210948FFF734FD01210748FFF732FDDE
:1011E0006006040E681CC5B2082DE5DB102102481C
:1011F000FFF728FD70BD00000008014000BFFEE7BA
:101200007047000070B5002100230F22C47804B39A
:10121000154C246804F4E064C4F5E064210AC1F1CB
:101220000403CA40447804FA03F18478144021434B
:1012300009010E4C0678A155047804F01F0501241D
:10124000AC4005786D11AD0005F1E025C5F8004111
:1012500009E0047804F01F050124AC40044D067831
:10126000761145F8264070BD0CED00E000E400E08A
:1012700080E100E002490143024A1160704700002A
:101280000000FA050CED00E001460020034A50681A
:1012900020F44040084350607047000000100240B6
:1012A00029B1064AD2690243044BDA6104E0034AD9
:1012B000D2698243014BDA6170470000001002409E
:1012C00029B1064A92690243044B9A6104E0034A39
:1012D00092698243014B9A617047000000100240FE
:1012E00030B500210022002400232D4D6D6805F04B
:1012F0000C0121B1042905D0082923D105E0294D8D
:10130000056022E0274D05601FE0254D6D6805F45E
:101310007012234D6D6805F48034022505EB92426E
:101320001CB9214D554305600BE01D4D6D6805F45A
:1013300000351DB11C4D5543056002E0194D554364
:10134000056002E0174D056000BF00BF144D6D68D9
:1013500005F0F0010909154D6B5C0568DD4045603D
:101360000F4D6D6805F4E061090A104D6B5C45682E
:10137000DD4085600A4D6D6805F46051C90A0B4D6A
:101380006B5C4568DD40C560054D6D6805F4404106
:10139000890B074D6B5CC568B5FBF3F5056130BD86
:1013A0000010024000127A0000093D0014000020E5
:1013B0002400002010B504462146054800F02FFD0A
:1013C00000BF8021024800F05CFC0028F9D010BD6D
:1013D0000038014010B5044603E014F8010BFFF794
:1013E000E9FF20780028F8D110BD10B500F002F810
:1013F00010BD00000CB5002001900090334800683B
:1014000040F480303149086000BF3048006800F483
:10141000003000900198401C0190009818B9019884
:10142000B0F5A06FF1D12948006800F4003010B188
:101430000120009001E0002000900098012843D195
:101440002348006840F01000214908600846006801
:1014500020F0030008600846006840F002000860C1
:101460001A4840681949486008464068486008467C
:10147000406840F4806048600846406820F47C1072
:1014800048600846406840F4E81048600846006834
:1014900040F08070086000BF0C48006800F00070E9
:1014A0000028F9D00948406820F003000749486047
:1014B0000846406840F00200486000BF03484068AA
:1014C00000F00C000828F9D10CBD0000001002400B
:1014D000002002401CB501240C481F21002380225B
:1014E000CDE900100AA10E4802F04AFA044624B9D8
:1014F0008B220CA10FA0FEF7BDFE012C03D101F041
:10150000F1FE00201CBD4FF0FF30FBE7480000203B
:101510004170705461736B437265617465000000C3
:10152000D9090008557365725C575461736B2E635B
:10153000000000004572726F723A25732C25640D0D
:101540000A000000042808D14FF0E021096941F0A9
:1015500004014FF0E022116107E04FF0E02109693A
:1015600021F004014FF0E0221161704710B502F044
:1015700037FA012801D002F02BF810BD10B513483E
:10158000006840F0010011490860084640681049B1
:1015900008400E494860084600680E4908400B495B
:1015A00008600846006820F480200860084640680B
:1015B00020F4FE0048604FF41F008860FFF715FF1D
:1015C0004FF000600449086010BD000000100240A8
:1015D0000000FFF8FFFFF6FE08ED00E010B5012166
:1015E000880700F05DF801280CD10748D0E90020F9
:1015F000521C40F100000449C1E900200121880784
:1016000000F03FF810BD00003800002010B50121A7
:10161000044800F045F8012803D10121014800F0F9
:1016200030F810BD0004004010B501210E4800F054
:1016300037F8012816D10D4800880B2190FBF1F0F6
:101640000B4908800B4800880B2190FBF1F00A49F8
:1016500008800020054908800649088001210248C9
:1016600000F00FF810BD000000080040440000200A
:10167000400000204600002042000020CA430282B1
:101680007047CA430282704721B1028842F00102CA
:10169000028004E002884FF6FE731A400280704711
:1016A00030B50246002000230024158A05EA010314
:1016B000958905EA010413B10CB1012000E0002076
:1016C00030BD1AB183890B43838102E083898B4348
:1016D0008381704701894FF6F8721140018170478C
:1016E00081847047002202881D4B98420ED01D4B0A
:1016F00098420BD0B0F1804F08D01B4B984205D0D8
:101700001A4B984202D01A4B984204D14FF68F736D
:101710001A404B881A43174B984207D0164B9842F1
:1017200004D04FF6FF431A40CB881A4302808B88BF
:1017300083850B8803850A4B98420BD0094B98424E
:1017400008D00E4B984205D00D4B984202D00D4B5D
:10175000984201D10B7A03860123838270470000EF
:10176000002C01400034014000040040000800400B
:10177000000C0040001000400014004000400140F8
:1017800000440140004801400EB5F7E00820FFF793
:1017900009F9064602F024FD05464FF08B4102F0A0
:1017A0003DFC0446764902F02FFD76490860092089
:1017B000FFF7F8F8064602F013FD05464FF08B419F
:1017C00002F02CFC04466E4902F01EFD6D49486093
:1017D00008684FF07E5102F021FC05466A4902F08C
:1017E00013FD044602F0DCFC68490880654948683E
:1017F0004FF07E5102F012FC0546634902F004FDF1
:10180000044602F0CDFC624908804FF480616148D3
:10181000FFF70DFA604908700846007810B90020FB
:101820005E4908705A4800889B2802DA04205B4908
:10183000087057480088AA2802DD0320574908701D
:1018400052480088AA2802DD0220544908704F48F7
:1018500000889B2802DA0120504908704C48008813
:101860009B2811DB4A480088AA280DDC47480088DD
:101870009B2809DB45480088AA2805DC46480078F3
:1018800010B105204549087044480078062871D2F7
:10189000DFE800F00316283A4C5E002010214FF4D8
:1018A00078424FF6FF73CDE9002102903CA205215A
:1018B0002D20FFF739FC3C483CA10988018059E004
:1018C000002010211F224FF6FF73CDE90021029066
:1018D00037A205212D20FFF727FC334836A10988C0
:1018E000018047E0002010214FF6E0720346CDE969
:1018F0000021029031A205212D20FFF715FC2A4876
:1019000030A10988018035E0002010214FF4FC62ED
:101910000346CDE9002102902BA205212D20FFF7DF
:1019200003FC21482AA10988018023E0002010211E
:101930004FF4FC620346CDE90021029025A2052167
:101940002D20FFF7F1FB184824A10988018011E040
:10195000002010214FF6FF720346CDE900210290CE
:101960001FA205212D20FFF7DFFB0F481EA10988CC
:10197000018000BF00BF0A2001F076FB06E70000EF
:1019800033335340400100200000C842560000207D
:1019900054000020000C0140590000205800002095
:1019A000302D53544F5021005A00002030000000C9
:1019B000312D476F476F210031000000322D426109
:1019C000636B210032000000332D4C4C2D3E210072
:1019D00033000000342D52522D3E2100340000000F
:1019E000352D526573742100350000000EB547E0B7
:1019F0002448FFF7EFFC2348002101604160FFF716
:101A00003BF9D0B3FFF720F900201021CDE9000108
:101A10004FF6FF731C4A192102903220FFF784FB16
:101A200000201021CDE900014FF6FF73164A121D68
:101A3000282102903220FFF777FB00201021CDE90A
:101A400000014FF6FF73104A083A41210290282006
:101A5000FFF76AFB00201021CDE900014FF6FF736C
:101A6000094A121F552102902820FFF75DFB074805
:101A7000017805480838FEF7B2FD0A2001F0F4FAB3
:101A8000B6E700005A000020340100203200002098
:101A90007FB505460C4601210846FFF701FC4FF0D3
:101AA0008040FFF717FE0020ADF80A00ADF80600F1
:101AB000681E80B2ADF80800601E80B2ADF8040068
:101AC00000208DF80C0001A94FF08040FFF70AFEBE
:101AD00000214FF08040FFF703FE01218807FFF748
:101AE000CDFD012211469007FFF7EBFD1C208DF87C
:101AF000000001208DF803008DF8010000208DF812
:101B000002006846FFF77EFB01218807FFF7BCFD56
:101B10007FBD000010B540F22551124800F0BEF81C
:101B2000F0B10120104908700E4800F073F90F4918
:101B30000870084600780E490E4A127888540B48FF
:101B400000780A2802D101200B4908700948007862
:101B5000401C0849087040F22551024800F076F810
:101B600010BD00000038014031000020300000208E
:101B7000EC000020320000203700002010B540F2B9
:101B80002551124800F08AF8F0B101201049087080
:101B90000E4800F03FF90F490870084600780E49DA
:101BA0000E4A127888540B480078232802D101206D
:101BB0000B49087009480078401C0849087040F239
:101BC0002551024800F042F810BD000000440040DA
:101BD0003100002030000020EC0000203200002006
:101BE0003700002010B540F22551124800F056F899
:101BF000F0B10120104908700E4800F00BF90F49B0
:101C00000870084600780E490E4A127888540B482E
:101C10000078232802D101200B4908700948007878
:101C2000401C0849087040F22551024800F00EF8A7
:101C300010BD0000004800403100002030000020AE
:101C4000EC000020320000203700002010B50022F8
:101C5000002340F66A14A14200D100BF0A120124F9
:101C60009440A3B2DC43048010BD21B1828942F4C8
:101C70000052828104E082894DF6FF731A4082810E
:101C8000704702460020B1F5007F00D100BF1388E5
:101C90000B400BB1012000E00020704770B50246F8
:101CA000002400230025002040F66A16B14200D12E
:101CB00000BFC1F3421501F01F03012606FA03F32A
:101CC000012D02D19689334006E0022D02D1168AF9
:101CD000334001E0968A33400C12012606FA04F4E0
:101CE0001688344013B10CB1012000E0002070BD13
:101CF000F0B50346002400260025002040F66A17B0
:101D0000B94200D100BF1846C1F3421401F01F06CA
:101D1000012707FA06F5012C01D10C3004E0022C52
:101D200001D1103000E014301AB107682F4307606A
:101D300002E00768AF430760F0BD00002DE9F047FF
:101D400086B005460E460024A24600BFA1460027E5
:101D5000B08900B100BF2F462C8A4CF6FF700440BA
:101D6000F08804432C82AC894EF6F3100440B0880E
:101D700031890843718908430443AC81AC8A4FF62A
:101D8000FF400440B0890443AC8201A8FFF7A8FAE1
:101D90001F48874202D1DDF810A001E0DDF80CA059
:101DA000A88900F4004040B10AEBCA0000EB0A1019
:101DB00031684900B0FBF1F807E00AEBCA0000EB1C
:101DC0000A1031688900B0FBF1F86420B8FBF0F02C
:101DD00004012009642101FB1089A88900F4004056
:101DE00040B1322000EBC900B0FBF1F000F0070079
:101DF000044308E0322000EB09106421B0FBF1F04D
:101E000000F00F0004432C8106B0BDE8F08700000D
:101E10000038014001468888C0F308007047C1F3CC
:101E200008028280704700BFFEE7000000B587B05F
:101E300001214802FFF744FA01210820FFF740FA88
:101E40004FF40040FFF720FA00208DF81B0003201C
:101E5000ADF818008DF81A0006A91D48FEF75CFEC3
:101E600048208DF81B004FF48060ADF81800032067
:101E70008DF81A0006A91648FEF74EFE00200190C4
:101E800004904FF46020039000208DF809008DF835
:101E9000080001208DF8140001A90E48FEF7E8FCA7
:101EA00001210C48FEF7B8FC0A48FEF765FD00BFAB
:101EB0000848FEF7D3FC0128FAD00648FEF76CFD6F
:101EC00000BF0448FEF7B3FC0128FAD007B000BDFC
:101ED000000C01400024014000B587B001218803B7
:101EE000FFF7EEF901210420FFF7EAF918208DF839
:101EF0001B004FF40070ADF8180003208DF81A0095
:101F000006A92048FEF708FE48208DF81B004FF474
:101F10008060ADF8180003208DF81A0006A9194852
:101F2000FEF7FAFD4FF4E13002900020ADF8140006
:101F3000ADF810000C20ADF812000020ADF80E0036
:101F4000ADF80C0002A91048FFF7F8FE012240F29C
:101F500025510D48FFF7CCFE25208DF80400012007
:101F60008DF8070002208DF8050000208DF806008E
:101F700001A8FFF747F901210348FFF776FE07B0F4
:101F800000BD0000000801400038014030380A2838
:101F900001D2012070470020704700BF7047000049
:101FA00010B50420FFF7CEFA104800681049B0FBC6
:101FB000F1F0104908700D4800680D49B0FBF1F4CC
:101FC0004FF47A70444301200B4908804FF0E02021
:101FD000006940F002004FF0E021086108464461CA
:101FE000006940F00100086110BD00000000002001
:101FF00040420F00280000202A00002070B504464F
:1020000001F0EEFC012810D00B480088844206D372
:1020100009480088B4FBF0F5284601F025F8064889
:102020000088B4FBF0F100FB11444FF47A7104FB1B
:1020300001F000F003F870BD2A00002070B50346DF
:1020400000224FF0E02675690D4E367803FB06F44A
:102050004FF0E026B16910E04FF0E026B069884209
:102060000BD0884202D20E1A324402E02E1A0E44DD
:1020700032440146A24200D300E0EDE700BF70BD4C
:102080002800002070B504460D46E0B2FFF792F933
:10209000204670BDFEF7FEFDFFF71CFA00BFFEE70D
:1020A0002DE9F04105460E46264807682648006897
:1020B000001D00F03DFE50B92348006890F82C1038
:1020C0000120884021490968814320480160681C3B
:1020D000D8B9D6B11E4948681B49096888601A49B1
:1020E00082680968CA6018490968091D82685160D8
:1020F00015490968091D8160154A134909684A6133
:1021000011460968491C11601AE07C190E480068E4
:102110004460BC4207D20C480168091D0D480068A4
:1021200000F02AFE0CE008480168091D0A48006812
:1021300000F022FE09480068844201D2074804608A
:10214000BDE8F08178000020640000207C000020C1
:102150005C0400206C000020680000209400002037
:1021600010B5044600F02EFE31480068401C30498E
:1021700008603048006840B92E480460084600688E
:1021800001280DD100F00EFA0AE02B48006838B99A
:1021900028480068C06AE16A884201D8254804607E
:1021A00026480068401C25490860084600686064AD
:1021B00094F82C10012088402149096808432049DF
:1021C0000860E16A01EB81011E4A02EB8101486867
:1021D000A0608268E260211D826851608160E16ACE
:1021E00001EB8101174A02EB81026261E16A01EBB6
:1021F0008101144A52F82110491CE26A02EB820262
:10220000104B43F8221000F01FFE0B48006868B125
:1022100008480068C06AE16A884207D24FF08050DF
:1022200009490860BFF34F8FBFF36F8F10BD0000E7
:102230007400002064000020800000209000002036
:102240007C0000208C01002004ED00E010B500F0BF
:10225000B9FD10480068D0B90F4800F07DFD0F4867
:1022600000F07AFD0C480E4908600C480D490860E2
:1022700000221021052001F0C5F906490860084632
:10228000006820B108A10348006800F089FE00F052
:10229000DBFD10BDB4000020700400208404002089
:1022A000AC000020B0000020546D7251000000000E
:1022B00010B516E000F086FD0C48C068C468201D0B
:1022C00000F036FD0A480068401E094908600948C8
:1022D0000068401E0749086000F0B6FD204600F087
:1022E0005FF8044800680028E4D110BD48040020CD
:1022F000740000207000002070B504460D46206C6C
:1023000070B1216CE0680144E160D4E902108842B8
:1023100001D32168E1602846226CE168FEF7E0F80D
:1023200070BD2DE9F04104460F4615464FF00008F8
:10233000A66B206C48B9206800282CD1A06801F059
:102340004FFC80460020A06025E07DB93946226C14
:102350006068FEF7C5F8216C606808446060D4E9E5
:102360000101884217D32068606014E03946226C6E
:10237000E068FEF7B5F8216CE068411AE160216879
:10238000E068884203D2216CA068411AE160022D06
:1023900001D106B1761E701CA0634046BDE8F081F5
:1023A00010B50446206B00F085FD204600F082FD4C
:1023B00010BD00000146084A126812680AB90122DD
:1023C00000E000220A600A6822B9034A1268D26853
:1023D000106800E000207047AC00002030B54FF4DA
:1023E0002053174800F007042CB1C01D20F007004F
:1023F000134C041B1B1B0246124C22600024114D7F
:102400006C60D018083820F007000F4C20600024C2
:102410000D4D2D686C600C4D2D682C601146441AD2
:102420004C60094C24680C60084D4C682C60084DC9
:102430004C682C604FF00044064D2C6030BD00000D
:1024400098040020C0000020C8000020D000002018
:10245000CC000020DC00002000BFFFF729FF064869
:1024600000680128F9D94FF0805004490860BFF393
:102470004F8FBFF36F8FF0E78C01002004ED00E079
:102480002DE9F04106460D4617469846069C0DB9C3
:10249000246000E02760E66325640121204601F006
:1024A000F1F884F850800020A064BDE8F0810000BD
:1024B0002DE9F05F82460F4690469B460A9E0C9C93
:1024C0004FEA8801A522206BFEF781F8A8F10100F0
:1024D000216B01EB800929F0070909F0070008B911
:1024E000012000E0002028B940F2633224A129A095
:1024F000FDF7C0FE87B1002507E0795D04F13400E7
:102500004155785D00B902E06D1C102DF5D300BF78
:1025100000214320015502E0002084F83400202EE1
:1025200001D2012000E0002028B940F29A3214A123
:1025300018A0FDF79FFE202E00D31F26E662E6645A
:1025400000202065201D00F014FC04F1180000F0AC
:1025500010FC2461C6F12000A06164620020606567
:10256000A06584F85C005A465146484600F0CEFB10
:1025700020600B9808B10B980460BDE8F09F000044
:102580004672656552544F535C7461736B732E636E
:10259000000000004572726F723A25732C25640D9D
:1025A0000A00000010B5002407E004EB84010F4A84
:1025B00002EB810000F0D0FB641C202CF5D30C480A
:1025C00000F0CAFB0B4800F0C7FB0B4800F0C4FB4F
:1025D0000A4800F0C1FB0A4800F0BEFB0448094964
:1025E000086004480849086010BD00008C01002004
:1025F0000C040020200400203404002048040020A3
:102600005C040020680000206C00002010B501462A
:10261000164800E0006803688B42FBD3024643681B
:1026200013448B4204D143684C6823444360014601
:102630000A464B6813440468A34211D10C4C03684A
:102640002468A34208D04B680468646823444B6044
:1026500003681B680B6005E0054B1B680B6001E01D
:1026600003680B60884200D0016010BDC0000020EC
:10267000C80000202DE9F04104460D4616461F46CD
:102680004FF0000865602461B5420CD8F01BA169C9
:10269000884202D34FF0010811E0211D094800686B
:1026A00000F06AFB0BE0BE4204D2BD4202D34FF001
:1026B000010804E0211D0448006800F05DFB40466D
:1026C000BDE8F081B0000020AC00002070B50546E8
:1026D00000F078FBA86B08B9012400E0002400F0AA
:1026E000B3FB204670BD0000F1B50098846C002655
:1026F0002CB940F6E73220A124A0FDF7BBFDA06B6A
:10270000E16B884201D2012000E0002028B940F6A8
:10271000E83219A11DA0FDF7ADFDA06BE16B884269
:1027200027D294F94550002269462046FFF7F9FD6B
:102730000646681C60B9606A08B9012000E0002004
:10274000B0B904F1240001F0CBFA88B101260FE002
:102750007F2D01D0012000E0002028B940F608427A
:1027600005A10AA0FDF786FD681C40B284F845006B
:1027700000BF3046F8BD00004672656552544F53A5
:102780005C71756575652E63000000004572726F9F
:10279000723A25732C25640D0A00000070B50546B9
:1027A0000E460E480068C068C468201D00F0C0FADC
:1027B00094F8280000F0040028B13246294620464B
:1027C00000F0F6F805E094F8280000F0FE0084F828
:1027D00028002046216A884770BD0000AC00002018
:1027E00070B586B08AE0029800280CDA03AE2EB9E4
:1027F00040F2063247A14CA0FDF73CFDD6E900208F
:10280000B168904700BF0298002877DB049C60699C
:1028100008B9012000E0002010B9201D00F088FA5E
:1028200001A800F0F1F8054602980A2864D2DFE812
:1028300000F06305072E365306082F3700BF00BF90
:1028400000BF94F8280040F0010084F828000398A5
:10285000A269811803462A462046FFF70BFFA8B15C
:1028600094F8280000F0040038B10398A269811898
:102870002A46204600F09CF805E094F8280000F075
:10288000FE0084F828002046216A884735E000BF12
:1028900094F8280000F0FE0084F828002DE000BF26
:1028A00094F8280040F0010084F828000398A06103
:1028B000A06908B1012000E0002028B940F2593297
:1028C00014A119A0FDF7D6FCA06941192B462A4690
:1028D0002046FFF7CFFE10E094F8280000F0020039
:1028E00018B9204600F0E6FA05E094F8280000F058
:1028F000FE0084F8280000E000BF00BF002202A90B
:102900000D48006800F034FF00287FF46CAF06B07B
:1029100070BD00004672656552544F535C74696D1A
:102920006572732E630000004572726F723A2573F0
:102930002C25640D0A000000B4000020F8B50546FF
:102940000C4600F02BFD684600F05EF80646009845
:1029500020BB44B9B54206D801F060FA314628469A
:10296000FFF71CFF1CE03CB10E480068006808B986
:10297000012000E000200446A91B22460A48006806
:1029800000F04CFB01F04AFA50B94FF08050074973
:102990000860BFF34F8FBFF36F8F01E001F03EFA85
:1029A000F8BD0000B0000020B400002004ED00E0FD
:1029B00070B504460D46164604E0A069054420465D
:1029C000216A8847A06941192B4632462046FFF705
:1029D00051FE0028F1D170BD09480068006808B9AF
:1029E000012000E0002020B14FF0FF3005490860D1
:1029F00005E003480068C068006802490860704745
:102A0000680000209400002070B5044600F0F8FF34
:102A1000054607480068854204D200F00BF8012003
:102A2000206001E00020206001480560284670BD5C
:102A3000BC00002070B508E00D480068C06804685C
:102A40004FF0FF312046FFF7A9FE094800680068F3
:102A500008B9012000E000200028EDD004480568F6
:102A600004480068024908600248056070BD000023
:102A7000AC000020B00000200B480068401C08B9E2
:102A8000012000E0002020B9CE2208A111A0FDF70E
:102A9000F1FB00BF502080F31188BFF34F8FBFF3CD
:102AA0006F8F00BF00BFFEE7E00000204672656543
:102AB00052544F535C706F727461626C655C525615
:102AC00044535C41524D5F434D335C706F72742EC2
:102AD000630000004572726F723A25732C25640DF5
:102AE0000A00000008B500BF6846FFF763FC044613
:102AF00020460099FFF722FFFFF772FEF4E770B55A
:102B0000044600F05FF994F9455019E0A06C30B12B
:102B10002046FFF7E9FD88B100F076FB0EE0606A21
:102B200008B9012000E0002038B904F1240001F0C8
:102B3000D7F818B100F068FB00E003E0681E45B26A
:102B4000002DE3DC00BFFF2084F8450000F07CF995
:102B500000F038F994F9445010E0206908B90120D8
:102B600000E0002048B904F1100001F0B9F808B104
:102B700000F04AFB681E45B200E001E0002DECDCED
:102B800000BFFF2084F8440000F05EF970BD000033
:102B90002DE9F04104464FF0000800F0FFFB4848E3
:102BA000006808B9FFF71AFC464800682040002872
:102BB00073D114B304F10800A0421ED9083404F004
:102BC0000700D8B104F00700C0F108002044A0427B
:102BD00011D904F00700C0F10800044404F0070014
:102BE00008B9012000E0002040B99C2236A13FA096
:102BF000FDF740FB02E0002400E00024002C4CD054
:102C00003E480068844248D83D4E3046056801E0A1
:102C10002E462D686868A04202D228680028F7D1A5
:102C200027480068854238D0306800F108082868D5
:102C300030606868001B102813D92F1907F00700AF
:102C400008B9012000E0002020B9CF221EA127A052
:102C5000FDF710FB6868001B78606C603846FFF772
:102C6000D5FC264968680968081A2449086008469E
:102C7000006824490968884203D220480068214935
:102C80000860104968680968084368600020286087
:102C90001D480068401C1C49086001F0BFF808F09E
:102CA000070008B9012000E0002028B94FF488721D
:102CB00005A10EA0FDF7DEFA4046BDE8F081000058
:102CC000C8000020DC0000204672656552544F5356
:102CD0005C706F727461626C655C4D656D4D616EA8
:102CE000675C686561705F342E6300004572726FC7
:102CF000723A25732C25640D0A000000CC000020D8
:102D0000C0000020D0000020D4000020001F4FF0A1
:102D100080730360001F21F001030360001F034B59
:102D2000036014380260203870470000792A0008D8
:102D300001460A69D1E901309860D1E90103586080
:102D40005068884201D1886850600020086110688E
:102D5000401E10601068704700F1080141604FF09C
:102D6000FF31816000F10801C16001610021016053
:102D7000704700210161704710B502460B685C1C6A
:102D80000CB9106907E002F1080000E040684468EF
:102D900024689C42FAD944684C604C68A160886001
:102DA00041600A611468641C146010BD42684A6086
:102DB00093688B60936859609160086103685B1C3D
:102DC0000360704710B500BF502080F31188BFF337
:102DD0004F8FBFF36F8F00BF0B480068401C0A493C
:102DE00008600846006801280DD108480068C0B294
:102DF00008B9012000E0002028B940F2731204A1B4
:102E00000DA0FDF737FA10BDE000002004ED00E052
:102E10004672656552544F535C706F727461626C98
:102E2000655C525644535C41524D5F434D335C7078
:102E30006F72742E630000004572726F723A2573D0
:102E40002C25640D0A00000010B50B48006828B955
:102E50004FF4BD7209A113A0FDF70CFA06480068F3
:102E6000401E054908600846006820B9002080F32C
:102E7000118800BF00BF10BDE000002046726565EC
:102E800052544F535C706F727461626C655C525641
:102E900044535C41524D5F434D335C706F72742EEE
:102EA000630000004572726F723A25732C25640D21
:102EB0000A00000070B506463546002E3AD0083D9F
:102EC0002C461D4960680968084008B1012000E0EF
:102ED000002028B94FF4927218A121A0FDF7CAF979
:102EE000206808B9012000E0002028B940F225122E
:102EF00012A11BA0FDF7BEF90F49606809680840E0
:102F0000C0B12068B0B90C49606809688843606046
:102F100000F044FA164960680968084414490860DA
:102F20002046FFF773FB13480068401C11490860F6
:102F300000F074FF70BD0000DC0000204672656583
:102F400052544F535C706F727461626C655C4D6576
:102F50006D4D616E675C686561705F342E63000063
:102F60004572726F723A25732C25640D0A000000B9
:102F7000CC000020D800002000204FF0E0210861A4
:102F80008861064800684FF47A71B0FBF1F0401E8A
:102F90004FF0E021486107200861704700000020E1
:102FA0002DE9F04106460F462EB940F6DA2211A16E
:102FB00015A0FDF75FF90025BFB1002412E0164807
:102FC00000EBC4004068B04203D1134800EBC405D5
:102FD0000AE035B9104850F8340010B90E4800EB3B
:102FE000C405641C082CEAD300BF0DB12F606E60CD
:102FF000BDE8F0814672656552544F535C7175654A
:1030000075652E63000000004572726F723A257379
:103010002C25640D0A0000004C0100202DE9F04130
:1030200005460E4617462C46FFF7CCFE94F94400A1
:10303000401C10B9002084F8440094F94500401C5D
:1030400010B9002084F84500FFF7FEFEA06B28B9F8
:103050003A46314604F1240000F006F92046FFF715
:103060004EFDBDE8F081000070B504460025ACB10E
:103070000F48006808B9012000E0002028B940F29C
:103080004C520CA110A0FDF7F5F800F087F90021D3
:103090002046FFF705F800F0C1FE05463DB94FF0A8
:1030A00080500D490860BFF34F8FBFF36F8F70BD25
:1030B000A00000204672656552544F535C746173E2
:1030C0006B732E63000000004572726F723A2573B5
:1030D0002C25640D0A00000004ED00E070B50546E3
:1030E000FFF770FE15B92F48006800E02846044637
:1030F000201DFFF71DFE78B9E06A00EB80002A4929
:1031000051F8200040B994F82C100120884027493C
:103110000968814325480160A06A18B104F11800CC
:10312000FFF706FE22480068401C214908601D4840
:103130000068844209D1211D1E48FFF737FE1E4852
:103140000068401C1C49086006E01C480068401EDE
:103150001A490860FFF740FCFFF776FE1148006847
:10316000844202D02046FFF71BF915480068C0B121
:103170000C480068844214D11248006808B9012044
:1031800000E0002028B940F2DF420FA113A0FDF7B4
:1031900071F84FF0805015490860BFF34F8FBFF3AF
:1031A0006F8F70BD640000208C0100207C00002027
:1031B00090000020480400207000002074000020CF
:1031C00080000020A00000204672656552544F53D5
:1031D0005C7461736B732E63000000004572726F44
:1031E000723A25732C25640D0A00000004ED00E0FE
:1031F000034909680160034909684160704700009C
:103200008C000020780000200120014908607047F0
:103210008800002070B504460D462CB940F61F42C8
:1032200007A10CA0FDF726F80E48016818312046CA
:10323000FFF7A2FD01212846FEF732FF70BD000016
:103240004672656552544F535C7461736B732E63A1
:10325000000000004572726F723A25732C25640DD0
:103260000A0000006400002070B504460E461546B2
:103270002CB940F6554211A115A0FCF7FBFF606880
:1032800017490968C8611649826809680A621449C1
:1032900009681831826851601149096818318160E4
:1032A0000F4909688C622168491C21600DB14FF0FB
:1032B000FF3629463046FEF7F3FE70BD467265655F
:1032C00052544F535C7461736B732E6300000000A3
:1032D0004572726F723A25732C25640D0A00000046
:1032E000640000201CB51C4800210B468222CDE959
:1032F00000101AA11B4800F043FB0446012C02D128
:1033000000F054FE0446012C17D100BF502080F37A
:103310001188BFF34F8FBFF36F8F00BF4FF0FF30A7
:103320001149086001201149086000201049086017
:10333000FDF7A4FB00F0AEF80BE0601C08B1012023
:1033400000E0002028B940F643020AA10EA0FCF7D5
:1033500091FF114800681CBD9800002049444C456D
:103360000000000059240008940000208000002084
:10337000780000204672656552544F535C74617347
:103380006B732E63000000004572726F723A2573F2
:103390002C25640D0A0000009C00002002480068F3
:1033A000401C014908607047A000002010B5284863
:1033B000006818B101202749086047E0002025492E
:1033C00008602548006825490860084600682449C7
:1033D000096888420BD92349096801F15400496DF5
:1033E0001E4A12681E4B1B68D21A114401601B480A
:1033F00000681B4908601C480068B0FA80F0C0F102
:103400001F0404EB8400194951F8200008B1012081
:1034100000E0002028B940F6054215A119A0FCF7EC
:1034200029FF04EB8401114A02EB810041684968DD
:10343000416000F1080142688A4202D1416849684E
:1034400041604168C968074A116000BF10BD0000B3
:10345000A00000208800002038000020A8000020E4
:10346000A4000020640000207C0000208C010020CB
:103470004672656552544F535C7461736B732E636F
:10348000000000004572726F723A25732C25640D9E
:103490000A0000001CB53B4C204600780190FF203C
:1034A000214608700846007800909DF8000000F062
:1034B000F0009DF80010884201D1012000E00020BA
:1034C00028B940F21F1230A139A0FCF7D3FE9DF8B5
:1034D000000000F050003A490870072039490860A0
:1034E00009E038480068401E364908609DF8000031
:1034F0004006000E00909DF8000000F0800080283B
:10350000EFD030480068C0F10700042801D1012045
:1035100000E0002028B940F233121BA124A0FCF7E0
:10352000A9FE28480068C0F10700042801D1012045
:1035300000E0002028B94FF49E7213A11CA0FCF7F4
:1035400099FE2048006800021E490860084600886D
:1035500000F4E06008600B49019808701A480068A0
:1035600040F47000184908600846006840F0704058
:103570000860FFF701FD002014490860FCF71EFEFB
:1035800000201CBD00E400E04672656552544F53B4
:103590005C706F727461626C655C525644535C413E
:1035A000524D5F434D335C706F72742E63000000A8
:1035B0004572726F723A25732C25640D0A00000063
:1035C000E4000020E800002020ED00E0E000002002
:1035D00010B500BF502080F31188BFF34F8FBFF3A9
:1035E0006F8F00BF00F012FA18B14FF080500449FD
:1035F000086000BF002080F3118800BF10BD0000EC
:1036000004ED00E02DE9F84305460E461746002478
:10361000E5B1601EB0FBF5F0B04217D305FB06F034
:1036200010F1550F12D805FB06F909F15400FFF708
:10363000AFFA04468CB1A04608F154083B46424616
:10364000314628460094FEF71BFF06E02CB94FF4E4
:10365000E47203A107A0FCF70DFE2046BDE8F88345
:103660004672656552544F535C71756575652E637E
:10367000000000004572726F723A25732C25640DAC
:103680000A0000002DE9F04105460E4601272C46B0
:103690002CB94FF488722CA130A0FCF7EBFD002C64
:1036A00042D0E06B00283FD04FF0FF31E06BB1FB20
:1036B000F0F0216C884237D3FFF784FBD4E90F1276
:1036C000206801FB0200A0600020A0632068606009
:1036D000E06B401E226C216800FB0211E160FF20BC
:1036E00084F8440084F845009EB9206908B9012097
:1036F00000E00020A8B904F1100000F0F1FA80B158
:103700004FF0805019490860BFF34F8FBFF36F8FA0
:1037100007E004F11000FFF71FFB04F12400FFF79E
:103720001BFBFFF791FB00E000270FB1012000E039
:10373000002028B940F2451203A108A0FCF79AFD29
:103740003846BDE8F08100004672656552544F531B
:103750005C71756575652E63000000004572726FBF
:10376000723A25732C25640D0A00000004ED00E078
:103770002DE9F74183B005460E464FF000082C4670
:103780002CB940F264524CA150A0FCF773FD0EB965
:10379000206C08B9012000E0002028B94FF4AD6288
:1037A00045A14AA0FCF766FD00F01AF908B9059892
:1037B00008B9012000E0002028B940F26D523EA176
:1037C00042A0FCF757FD00BFFFF7FCFAA76BF7B16B
:1037D00031462046FEF790FD781EA063206908B9A7
:1037E000012000E0002060B904F1100000F078FA38
:1037F00038B14FF0805039490860BFF34F8FBFF3A5
:103800006F8FFFF721FB012006B0BDE8F08105981E
:1038100018B9FFF719FB0020F6E7B8F1000F04D143
:1038200001A8FFF7E5FC4FF00108FFF70DFBFFF7DC
:10383000B5FDFFF7C7FA94F94400401C10B9002009
:1038400084F8440094F94500401C10B9002084F825
:103850004500FFF7F9FA05A901A800F041F8F0B911
:103860002046FEF733FFA0B104F124000599FFF7CD
:10387000D1FC2046FFF743F900F0D0FA0028A3D18D
:103880004FF0805015490860BFF34F8FBFF36F8F23
:103890009AE72046FFF733F900F0C0FA94E7204694
:1038A000FFF72DF900F0BAFA2046FEF70FFF0028C7
:1038B0008AD00020A8E700004672656552544F5335
:1038C0005C71756575652E63000000004572726F4E
:1038D000723A25732C25640D0A00000004ED00E007
:1038E00070B505460C462DB94FF4506219A11EA0C3
:1038F000FCF7C0FC2CB940F6015216A11AA0FCF747
:10390000B9FCFFF75FFA1C48036868681A1A206858
:10391000401C08B9002619E018492868096888423F
:1039200006D06868984203D80126002020600DE088
:103930002068904207D92068801A20602846FFF747
:1039400057FC002602E0002020600126FFF77CFAE9
:10395000304670BD4672656552544F535C74617356
:103960006B732E63000000004572726F723A25730C
:103970002C25640D0A000000780000208C00002037
:103980002DE9FF4F85B0804689461746DDE912AB29
:10399000B800FFF7FDF8064656B16020FFF7F8F8CB
:1039A00004460CB1266304E03046FFF783FA00E0DA
:1039B00000247CB10020CDE900ABCDE902403A46BD
:1039C00049464046089BFEF773FD2046FEF7C8FBBC
:1039D000012501E04FF0FF35284609B0BDE8F08F22
:1039E0000549096809B9012005E00449096809B9D0
:1039F000022000E00020704780000020A00000208E
:103A00000149086870470000780000202DE9F04166
:103A10004FF000085E48006800287DD15D480068CE
:103A2000451C5C480560EDB95B480068006808B952
:103A3000012000E0002028B940F6CA2257A15CA06E
:103A4000FCF718FC544807685D4800685249086054
:103A50005B4807605B480068401C5A490860FEF7F5
:103A6000BBFF00BF58480068854277D300BF4A4873
:103A70000068006808B9012000E0002020B14FF084
:103A8000FF305149086068E043480068C068C46876
:103A90006668B54202D24C4806605EE06069D4E9CF
:103AA00002128A60D4E902214A60211D42688A42DA
:103AB00001D1E1684160002262610168491E016034
:103AC000A06A98B1A06AD4E907128A60D4E90721F4
:103AD0004A6004F1180142688A4201D1216A4160BA
:103AE0000022A2620168491E016000BF94F82C10F8
:103AF0000120884035490968084334490860E16A73
:103B000001EB8101324A02EB81014868A0608268C2
:103B1000E260211D826800E032E051608160E16A6C
:103B200001EB81012A4A02EB81026261E16A01EB49
:103B30008101274A52F82110491CE26A02EB8202F5
:103B4000234B43F822102349E06A0968C96A884276
:103B50008DD34FF001088AE700E000BF1D480068E0
:103B6000C06A00EB80001A4951F82000012801D9F1
:103B70004FF001081848006808B14FF0010804E050
:103B800016480068401C154908604046BDE8F081B1
:103B9000A0000020780000206800002046726565C3
:103BA00052544F535C7461736B732E6300000000BA
:103BB0004572726F723A25732C25640D0A0000005D
:103BC0006C0000208C000020940000207C0000206D
:103BD0008C01002064000020880000208400002068
:103BE00070B505462C460026002D5ED03048006892
:103BF000844201D1012000E0002028B941F25202A4
:103C00002CA131A0FCF736FB206D28B941F25302FC
:103C100028A12DA0FCF72EFB206D401E2065E16C35
:103C2000E06A884241D0206D00283ED1201DFFF778
:103C30007FF840B994F82C10012088402649096883
:103C4000814325480160E06CE062E06AC0F1200039
:103C5000A06194F82C10012088401F49096808438E
:103C60001D490860E16A01EB81011C4A02EB8101F8
:103C70004868A0608268E260211D826851608160AE
:103C8000E16A01EB8101154A02EB81026261E16A9E
:103C900001EB8101114A52F82110491CE26A02EB42
:103CA00082020E4B43F822100126304670BD000000
:103CB000640000204672656552544F535C74617312
:103CC0006B732E63000000004572726F723A2573A9
:103CD0002C25640D0A0000007C0000208C010020CF
:103CE00070B50646F068C4682CB940F685423CA120
:103CF00040A0FCF7BFFAA06AD4E907128A60D4E9B1
:103D000007214A6004F1180142688A4201D1216A00
:103D100041600022A2620168491E016039480068C2
:103D200000283DD16069D4E902128A60D4E90221F9
:103D30004A60211D42688A4201D1E1684160002247
:103D400062610168491E016094F82C1001208840CE
:103D50002D49096808432C490860E16A01EB81019B
:103D60002A4A02EB81014868A0608268E260211D56
:103D7000826851608160E16A01EB8101234A02EBB4
:103D800081026261E16A01EB8101204A52F821104F
:103D9000491CE26A02EB82021C4B43F8221010E03D
:103DA0001B494868E0618268226204F11801826858
:103DB00051608160164AA26211460968491C11606F
:103DC00000BF1449E06A0968C96A884204D901251C
:103DD00001201149086000E00025284670BD000060
:103DE0004672656552544F535C7461736B732E63F6
:103DF000000000004572726F723A25732C25640D25
:103E00000A000000A00000207C0000208C0100209F
:103E100034040020640000208800002070B50024D5
:103E200000265048006828B940F6B6024EA153A0BB
:103E3000FCF720FAFEF7C6FF4A480068401E4949D1
:103E400008600846006800287ED1504800680028B5
:103E50007AD05BE04E48C068C468A06AD4E9071213
:103E60008A60D4E907214A6004F1180142688A4255
:103E700001D1216A41600022A2620168491E0160ED
:103E80006069D4E902128A60D4E902214A60211DE6
:103E900042688A4201D1E1684160002262610168A2
:103EA000491E016094F82C100120884039490968A6
:103EB000084338490860E16A01EB8101364A02EBA8
:103EC00081014868A0608268E260211D82685160BB
:103ED0008160E16A01EB81012F4A02EB810262619C
:103EE000E16A01EB81012C4A52F82110491CE26A77
:103EF00002EB8202284B43F822102849E06A096845
:103F0000C96A884202D30120254908602048006818
:103F100008B9012000E0002000289BD00CB1FEF77A
:103F20005BFD2048056865B100BFFFF76FFD10B16C
:103F300001201B4908606D1E002DF6D10020194993
:103F400008601748006800E008E038B10126300733
:103F500015490860BFF34F8FBFF36F8FFEF774FFF3
:103F6000304670BDA00000204672656552544F5324
:103F70005C7461736B732E63000000004572726F96
:103F8000723A25732C25640D0A000000740000208D
:103F9000340400207C0000208C01002064000020FC
:103FA000880000208400002004ED00E01CB50024FF
:103FB000FEF74CF90B48006858B10B481F2100234D
:103FC0004FF48272CDE9001008A10A48FFF7D8FC2F
:103FD00004462CB940F2191207A10CA0FCF74AF9CB
:103FE00020461CBDB4000020B8000020546D722093
:103FF00053766300E52A00084672656552544F53B4
:104000005C74696D6572732E630000004572726F97
:10401000723A25732C25640D0A0000004FF47F0CC2
:104020001CEAD0121EBF1CEAD11392EA0C0F93EACD
:104030000C0F00F0858090EA010F48BF42F48072B7
:1040400040F4000C41F400002CF07F4120F07F4050
:1040500000B58142A2EB03020FF2081CACEB504EFC
:10406000C0F100009EF800E04FEA4E0E00FB0EFC8F
:1040700038BF49004FEA2C1C02F5FA020CFB0EF384
:104080004FEACE1E4FEA112C4FEAC1210EEB635EC0
:1040900042EB22420EFB0CFC4FEA1C5300FB0311C7
:1040A0004FEA112C4FEA01310EFB0CFC4FEADC4CBD
:1040B00000FB0C11C14228BF09184CEB03335DF81B
:1040C00004EB10EB410143EBC250B2F57C0F38BF5B
:1040D000704729D512F0F00F1CBF00F1C04000F06E
:1040E00000407047008182838485868788898B8C15
:1040F0008D8E8F919293959697999A9C9D9FA0A251
:10410000A3A5A7A8AAACAEB0B2B3B5B7B9BCBEC0A0
:10411000C2C5C7C9CCCED1D4D7D9DCDFE2E6E9EC41
:10412000F0F3F7FAFE0000004FEA400C0CF1807C3F
:10413000BCF17E4F28BF7047B0F1C04000F02BB9F2
:1041400090EA010F0CEAD11348BF42F48072624535
:1041500038BF634507D213F47F0F16D080EA010001
:1041600000F00040704710B500F0CFF8097EFC3E2B
:1041700000F005B880EA010000F00040704780EAD6
:10418000010000F0004000F006B912F47F0F04BFF8
:104190000248704780EA010000F0FDB80000C07FCF
:1041A000C10DD1F19E0206DB4FEA002343F000432C
:1041B00023FA02F07047004207D54FEA4001B1F1FF
:1041C000FE4F02D24FF00000704710B500F09DF88E
:1041D00049922480002070476FEA20007047000059
:1041E000B0FA80F310FA03F2C3F19D030AD0D905A7
:1041F00001EB1220530638BF704700F1010008BFE1
:1042000020F00100704700004FF47F0C1CEAD01230
:104210001EBF1CEAD11392EA0C0F93EA0C0F00F0B8
:10422000478090EA010F48BF42F480724FF0004C83
:104230004CEA00204CEA012102EB0302A0FB01132F
:10424000A2F50002002918BF43F001035B0028BF5C
:104250004FEA330342EB22425FEA132C4CEBC2508D
:104260002EBFBCEB436FB2F57C0F70474FEA036C77
:10427000BCF1004F08BF20F00100B2F57C0F38BF41
:1042800070470BD582F0FF0212F5803FC8BF704720
:1042900000F1C040D8BF00F00040704700F5000CAE
:1042A0005FEA4C0C48BF7047B0F1C04000F073B8F3
:1042B00090EA010F0CEAD11348BF42F480726245C4
:1042C00038BF634504D280EA010000F00040704727
:1042D00010B500F01AF800BF8900013E00F007B8E1
:1042E00000F009B85FEA410C5FEA1C6C08D080EA74
:1042F000010000F050B85FEA400C5FEA1C6CF6D198
:104300004FF00040A0F5800070470EF1020E2EF035
:10431000030E5EF8044B244204D44FEA4102B2F18A
:104320007F4F11D84FEA4003B3F17F4F0CD80ED125
:104330004FEAD07CB2F17F4F0CEB4C0C0CF1020C2D
:1043400008BF4CEBD17C04E04FF0080C01E04FEAD1
:10435000D17C0CEB4C0324FA03F404F00704B4F111
:10436000040C06D20EEB840CBDE810404CF0010C9E
:104370006047DFE80CF0070802024FF00040A0F5AC
:10438000800010BD0846420018BFD2F1807288BF7D
:1043900000F0004010BDFF2141EAD050C005704739
:1043A000000000000000000000000000000000000D
:1043B0000000000808080808080800001818000095
:1043C00000486C2412000000000000000000000003
:1043D0000000002424247F1212127F121212000007
:1043E0000000081C2A2A0A0C1828282A2A1C080857
:1043F00000000022251515152A5854545422000097
:104400000000000C1212120A76252911916E00008C
:104410000006060403000000000000000000000089
:10442000004020101008080808080810102040005C
:1044300000020408081010101010100808040200F0
:104440000000000008086B1C1C6B0808000000003E
:1044500000000000080808087F080808080000009D
:104460000000000000000000000000000606040339
:104470000000000000000000FE000000000000003E
:104480000000000000000000000000000606000020
:1044900000008040402020101008080404020200A0
:1044A00000000018244242424242424224180000C6
:1044B000000000080E08080808080808083E000068
:1044C0000000003C4242422020100804427E0000CE
:1044D0000000003C4242201820404042221C0000C4
:1044E000000000203028242422227E202078000092
:1044F0000000007E0202021A26404042221C0000F8
:10450000000000382402021A264242422418000009
:104510000000007E22221010080808080808000089
:104520000000003C4242422418244242423C000027
:10453000000000182442424264584040241C0000FD
:10454000000000000000181800000000181800000B
:10455000000000000000000800000000000808043F
:104560000000004020100804020408102040000051
:104570000000000000007F0000007F00000000003D
:10458000000000020408102040201008040200006F
:104590000000003C42424640201010001818000065
:1045A0000000001C225A555555552D42221C000072
:1045B0000000000808181414243C224242E70000BE
:1045C0000000001F2222221E22424242221F00001F
:1045D0000000007C4242010101010142221C000056
:1045E0000000001F2242424242424242221F00007B
:1045F0000000003F4212121E12120242423F00000F
:104600000000003F4212121E1212020202070000B6
:104610000000003C2222010101712122221C000025
:10462000000000E7424242427E42424242E700002E
:104630000000003E0808080808080808083E0000B6
:104640000000007C10101010101010101010110F2E
:104650000000007722120A0E0A12122222770000AE
:10466000000000070202020202020202427F000072
:1046700000000077363636362A2A2A2A2A6B0000AE
:10468000000000E346464A4A525252626247000026
:104690000000001C2241414141414141221C0000D7
:1046A0000000003F424242423E0202020207000076
:1046B0000000001C2241414141414D53321C600029
:1046C0000000003F4242423E1212222242C7000036
:1046D0000000007C4242020418204042423E00009A
:1046E0000000007F4908080808080808081C0000A6
:1046F000000000E74242424242424242423C000045
:10470000000000E742422224241414180808000084
:104710000000006B494949495555362222220000C4
:10472000000000E7422424181818242442E700005F
:10473000000000772222141408080808081C000052
:104740000000007E2120101008040442423F0000B7
:104750000078080808080808080808080808780009
:104760000000020204040808081010202020404025
:10477000001E1010101010101010101010101E003D
:1047800000384400000000000000000000000000AD
:10479000000000000000000000000000000000FF1A
:1047A00000060800000000000000000000000000FB
:1047B000000000000000003C4278444242FC00003F
:1047C000000000030202021A26424242261A00009A
:1047D00000000000000000384402020244380000DB
:1047E00000000060404040784442424264D80000EB
:1047F000000000000000003C427E0202423C00003B
:10480000000000F08808087E08080808083E00003C
:10481000000000000000007C22221C023C42423CBE
:10482000000000030202023A4642424242E7000010
:104830000000000C0C00000E08080808083E0000EC
:104840000000003030000038202020202020221ED0
:104850000000000302020272120A16122277000000
:104860000000000E0808080808080808083E0000B4
:10487000000000000000007F9292929292B7000028
:10488000000000000000003B4642424242E70000B8
:10489000000000000000003C42424242423C000056
:1048A000000000000000001B26424242221E0207B8
:1048B000000000000000007844424242447840E09A
:1048C00000000000000000774C040404041F0000F6
:1048D000000000000000007C42023C40423E00001C
:1048E000000000000008083E080808080830000022
:1048F00000000000000000634242424262DC00000F
:1049000000000000000000E7422424140808000012
:1049100000000000000000EB49495555222200002C
:10492000000000000000007624181818246E000013
:1049300000000000000000E74224241418080807C3
:10494000000000000000007E22100808447E0000E5
:1049500000C0202020202010202020202020C00067
:104960001010101010101010101010101010101047
:1049700000060808080808100808080808080600C3
:104980000C32C20000000000000000000000000027
:104990000000000000000000000000000000000017
:1049A0000000000000000000000000000000000007
:1049B00000000000000000000000000000000000F7
:1049C00000000000000000000000000000000000E7
:1049D00000000000000000000000C001C001C00194
:1049E000C001C001C001C0018000800080008000C3
:1049F00080008000800000000000000000008001B6
:104A0000C003C0038001000000000000000000009F
:104A1000000000000000E01CE01CF01E700E3807D3
:104A200018030801840000000000000000000000DE
:104A30000000000000000000000000000000000076
:104A40000000000000000000000000000000000066
:104A500000000000000000000000000020102010F6
:104A6000201020102010FE7FFE7F10081008100874
:104A70001008100810081008FE7FFE7F08040804C4
:104A80000804080408040000000000000000000002
:104A9000000000000000000000010001C0076019D4
:104AA000103118311839183938017001E001C0038C
:104AB0008007000F001D003900311C311C310C3102
:104AC0000C11180DE00700010001000100000000BA
:104AD0000000000000000000000000001C1036185C
:104AE0006308630C63046304630263026301361D9D
:104AF0009C3780228063406340632063206330637F
:104B000010221836081C0000000000000000000001
:104B1000000000000000000000000000F00098010C
:104B20008C018C018C018C018C00CC007800183E2B
:104B30001C083608320863046304C304C3038343B8
:104B400006438E26781C00000000000000000000D4
:104B50000000000000001C003C003C003000300061
:104B600010000C0006000000000000000000000023
:104B70000000000000000000000000000000000035
:104B80000000000000000000000000000000000025
:104B90000000000000000040002000100008000C91
:104BA000000400060003000300038001800180016F
:104BB0008001800180018001800100030003000367
:104BC00000060006000C0008001000200040000055
:104BD0000000000000000200040008001000300087
:104BE00020006000C000C000C00080018001800182
:104BF00080018001800180018001C000C000C000F0
:104C00006000600030001000080004000200000096
:104C10000000000000000000000000000000000094
:104C200000018003800300011C713C79783DC007BE
:104C30000001C007783D3C791C71000180038003AE
:104C400080010000000000000000000000000000E3
:104C50000000000000000000000000000000000054
:104C6000000000010001000100010001000100013D
:104C7000FC7F0001000100010001000100010001B2
:104C80000000000000000000000000000000000024
:104C90000000000000000000000000000000000014
:104CA0000000000000000000000000000000000004
:104CB00000000000000000000000000000000000F4
:104CC0001C003C003C003000300010000C000600CE
:104CD00000000000000000000000000000000000D4
:104CE00000000000000000000000000000000000C4
:104CF000FE7F000000000000000000000000000037
:104D000000000000000000000000000000000000A3
:104D10000000000000000000000000000000000093
:104D20000000000000000000000000000000000083
:104D3000000000000000000000000000000018005B
:104D40003C003C00180000000000000000000000D3
:104D50000000000000000040006000200030001053
:104D600000180008000C0004000600020003000107
:104D700080018000C0004000600020003000100072
:104D8000180008000C0004000600020000000000EB
:104D9000000000000000000000000000C007600CE0
:104DA00030181830183018200C600C600C600C6043
:104DB0000C600C600C600C600C601820183018300F
:104DC0003018600CC0070000000000000000000068
:104DD0000000000000000000000000000001800151
:104DE000F801800180018001800180018001800143
:104DF00080018001800180018001800180018001AB
:104E00008001C003F81F0000000000000000000047
:104E1000000000000000000000000000E007101C7F
:104E20000818043004300C300C3000300018000832
:104E30000004000200018000400020201020082013
:104E40000430FC1FFC1F00000000000000000000F8
:104E5000000000000000000000000000E003180E49
:104E60000C0C0C180C180C180018000C0006C003D1
:104E7000000E00180010003000300C300C300C1008
:104E80000C18180CE00300000000000000000000F7
:104E9000000000000000000000000000000C000EF8
:104EA000000E000F800E800E400E600E200E100EC1
:104EB000100E080E040E040EFE7F000E000E000EF3
:104EC000000E000E000EC07F000000000000000079
:104ED000000000000000000000000000F03FF03F74
:104EE00010001000100008000800C807280C18184F
:104EF000081000300030003000300C300C30041846
:104F00000418080CF003000000000000000000007E
:104F1000000000000000000000000000800FC01032
:104F2000203010301800180008000C008C0F6C188E
:104F30003C301C600C600C600C600C601860182029
:104F400030306018C00700000000000000000000C2
:104F5000000000000000000000000000F83FF83FE3
:104F60001C100C08040804040004000200020001E4
:104F700000010001800080008000C000C000C0006F
:104F8000C000C000C00000000000000000000000E1
:104F9000000000000000000000000000E007300CEE
:104FA00018180C300C300C301C3038187008E00722
:104FB000B007180E0C1C06380630063006300630D6
:104FC0000C18180CE00300000000000000000000B6
:104FD000000000000000000000000000E0031804D2
:104FE0000C080C180610063006300630063006385D
:104FF0000C3C1836F03100300018001800180C0C6A
:105000000C060C03F001000000000000000000008E
:105010000000000000000000000000000000000090
:10502000000000000000000000008001C003C00379
:10503000800100000000000000000000000080016E
:10504000C003C00380010000000000000000000059
:105050000000000000000000000000000000000050
:1050600000000000000000000000C000C0000000C0
:105070000000000000000000000000000000000030
:105080000000C000C0008000800040004000000020
:1050900000000000000000000000002000100008D8
:1050A0000004000600038001C0006000300018000A
:1050B0000C00180030006000C000800100030006F2
:1050C00000040008001000200000000000000000A4
:1050D00000000000000000000000000000000000D0
:1050E00000000000000000000000FE7F0000000043
:1050F000000000000000FE7F000000000000000033
:10510000000000000000000000000000000000009F
:105110000000000000000000000004000800100073
:1051200020006000C000800100030006000C001891
:1051300000300018000C000600038001C000600071
:105140002000100008000400000000000000000023
:1051500000000000000000000000C0073018083008
:1051600008600C601C601C601C600030001C0006A5
:1051700000018000800080008000000000008001AD
:10518000C003C00380010000000000000000000018
:10519000000000000000000000000000C0076018D0
:1051A000103018200C2F8C4D864CC64CC64C664CCB
:1051B00066446644662666266615CC1C0C400820AC
:1051C00018303018C0070000000000000000000088
:1051D000000000000000000000000001C001C0014C
:1051E000C0014001600320032003200330061006A5
:1051F00010061006F80F080C080C080C0C0C04180C
:10520000041806181F7C00000000000000000000C9
:10521000000000000000000000000000FE07181C55
:10522000183818301830183018301818180CF807BB
:105230001818183018201860186018601860186066
:1052400018301818FE0F00000000000000000000D9
:10525000000000000000000000000000C0276038CF
:10526000103018200C400C40040006000600060018
:10527000060006000600060006000C400C400C204C
:1052800018303018C00700000000000000000000C7
:10529000000000000000000000000000FE03180EE7
:1052A0001818183018301830186018601860186016
:1052B00018601860186018601860183018301810DE
:1052C0001818180EFE030000000000000000000087
:1052D000000000000000000000000000FE3F183049
:1052E000182018601840180018081808180CF80F33
:1052F000180C180818081800180018001840184052
:1053000018201830FE3F00000000000000000000E0
:10531000000000000000000000000000FE7F187088
:10532000184018C018801800181018101818F81F06
:105330001818181018101800180018001800180075
:10534000180018007E0000000000000000000000AF
:10535000000000000000000000000000C013701CEE
:10536000101018100C200C20040006000600060087
:105370000600060006FC063006300C300C301830F3
:1053800018303008C00700000000000000000000D6
:105390000000000000000000000000003F7E0C182C
:1053A0000C180C180C180C180C180C180C180C18DD
:1053B000FC1F0C180C180C180C180C180C180C18D6
:1053C0000C180C183F7E00000000000000000000D8
:1053D000000000000000000000000000F81F800135
:1053E00080018001800180018001800180018001B5
:1053F00080018001800180018001800180018001A5
:1054000080018001F81F0000000000000000000083
:10541000000000000000000000000000E07F000627
:10542000000600060006000600060006000600064C
:10543000000600060006000600060006000600063C
:1054400000060006000600060E060E038E01FC0094
:105450000000000000000000000000007E7C181822
:105460001808180418061802180198019801D801A4
:10547000B803380318071806180E180C181C18184B
:10548000183018307EFC0000000000000000000012
:105490000000000000000000000000007E00180076
:1054A000180018001800180018001800180018003C
:1054B00018001800180018001800180018401840AC
:1054C00018201830FE3F000000000000000000001F
:1054D0000000000000000000000000001FF81C3861
:1054E0001C381C381C3C3434343434343436743274
:1054F0006432643264326431C431C431C431C43082
:10550000C43084309FFC0000000000000000000058
:105510000000000000000000000000001F7C1C10C4
:105520003C103410341074106410E410C410C41112
:1055300084118413041304170416041E041C041C91
:10554000041C04181F1800000000000000000000E8
:10555000000000000000000000000000C003300C4C
:10556000181808100C300C300660066006600660E3
:10557000066006600660066006600C200C300810AD
:105580001818300CC00300000000000000000000EC
:10559000000000000000000000000000FE0F1818CE
:1055A00018301860186018601860186018301818E3
:1055B000F80F18001800180018001800180018003C
:1055C000180018007E00000000000000000000002D
:1055D000000000000000000000000000C003300CCC
:1055E00018180C100C300C2006600660066006606F
:1055F00006600660066006600660E4612C331C32BB
:105600001816300EC007004C007C00380000000067
:10561000000000000000000000000000FE07181C51
:10562000183818301830183018301818180CF807B7
:1056300098031803180718061806180E180C180CEB
:10564000181C18187E780000000000000000000000
:10565000000000000000000000000000E0273038DB
:1056600018300C200C200C000C0018007800E0030F
:10567000800F001E00380070006004600460086045
:1056800018303818C80F00000000000000000000AB
:10569000000000000000000000000000FC3F8C2122
:1056A000846182418241800180018001800180010A
:1056B00080018001800180018001800180018001E2
:1056C00080018001E00700000000000000000000F1
:1056D0000000000000000000000000003F7C0C10F3
:1056E0000C100C100C100C100C100C100C100C10DA
:1056F0000C100C100C100C100C100C100C100C10CA
:1057000008083804E003000000000000000000006A
:105710000000000000000000000000003EF818201B
:105720001820182030103010301030106008600839
:105730006008E00CC004C004C00480038003800340
:1057400080030001000100000000000000000000D4
:10575000000000000000000000000000DFF3866190
:10576000862186218C210C218C238C138C138C1385
:105770004C1358125816580E380E380E380E300C7E
:1057800010041004100400000000000000000000DD
:105790000000000000000000000000007E3E18082D
:1057A00038083004300470026002E001C001C0011A
:1057B000800180034003400720062006100C100CD7
:1057C000081808183E7C00000000000000000000DF
:1057D0000000000000000000000000007E7C1C10A3
:1057E000181018083008300C700460046002C00201
:1057F000C002C00180018001800180018001800120
:1058000080018001E00700000000000000000000AF
:10581000000000000000000000000000F83F181821
:105820000818040C040E0006000700038003800122
:10583000C001C000E0006000700030003820182077
:105840001C100C18FE1F00000000000000000000EB
:10585000000000000000C03F400040004000400049
:105860004000400040004000400040004000400038
:105870004000400040004000400040004000400028
:1058800040004000400040004000C03F00000000D9
:1058900000000000000000000000080018001800D0
:1058A000100030002000600060004000C000800058
:1058B00080018001000100030002000600060004D0
:1058C000000C000800180018001000300020000034
:1058D000000000000000FC030002000200020002C1
:1058E00000020002000200020002000200020002A8
:1058F0000002000200020002000200020002000298
:1059000000020002000200020002FC03000000008E
:105910000000000000008007C006200810100000F2
:105920000000000000000000000000000000000077
:105930000000000000000000000000000000000067
:105940000000000000000000000000000000000057
:105950000000000000000000000000000000000047
:105960000000000000000000000000000000000037
:105970000000000000000000000000000000000027
:105980000000000000000000000000000000FFFF19
:105990000000000000007800C000000100000000CE
:1059A00000000000000000000000000000000000F7
:1059B00000000000000000000000000000000000E7
:1059C00000000000000000000000000000000000D7
:1059D00000000000000000000000000000000000C7
:1059E00000000000000000000000F00318060C0C8E
:1059F0000C0C000C800F700C1C0C0C0C060C060C14
:105A0000064C0C4FF83800000000000000000000B9
:105A10000000000000000000000010001E00180040
:105A200018001800180018001800180FD81838307F
:105A300038601860186018601860186018601820C6
:105A400038307818C807000000000000000000008F
:105A50000000000000000000000000000000000046
:105A600000000000000000000000C007700C1818C3
:105A700018180C180C000C000C000C000C2018203E
:105A800018103008C00700000000000000000000EF
:105A9000000000000000000000000010001E0018C0
:105AA00000180018001800180018E01B301C181807
:105AB00018180C180C180C180C180C180C180818BE
:105AC000181C307AE009000000000000000000000F
:105AD00000000000000000000000000000000000C6
